:020000021000EC
:10F00000004000207D5E02005D5E02005D5E020049
:10F0100000000000000000000000000000000000F0
:10F020000000000000000000000000005D5E020023
:10F0300000000000000000005D5E02005D5E020056
:10F040005D5E02005D5E02005D5E02005D5E0200CC
:10F050005D5E0200000000005D5E02005D5E020079
:10F060005D5E02005D5E02005D5E02005D5E0200AC
:10F070005D5E02005D5E02005D5E02005D5E02009C
:10F080005D5E02005D5E02005D5E02005D5E02008C
:10F090005D5E0200194E0200B54302005D5E020093
:10F0A0005D5E02005D5E02000000000000000000E6
:10F0B0000000000000000000000000000000000050
:10F0C00010B5064C2378002B07D1054B002B02D03E
:10F0D000044800E000BF0123237010BD94210020EC
:10F0E00000000000E4A0020008B5084B002B03D08C
:10F0F0000748084900E000BF07480368002B03D019
:10F10000064B002B00D0984708BDC0460000000009
:10F11000E4A0020098210020E4A00200000000000A
:10F12000054B1A68002A01D1044A1A601A6810189F
:10F130001860101C7047C046B021002058290020DC
:10F1400001204042704780239B0100204B607047A4
:10F1500001207047002070470020704770B50E1CDA
:10F16000151C0C1CA31BAB4204DA207803F0AAFF89
:10F170000134F7E7E843C017284070BD011C08B50B
:10F18000014809F0A1F8FEE7F09202007047012063
:10F1900040427047014B03607047C046189302001D
:10F1A0007047000010B5034B041C036006F0AFFE6F
:10F1B000201C10BD1893020038B5051CB9352C78F9
:10F1C000002C05D00348044906F0A9FA00232B704F
:10F1D000201C38BD742300203093020038B5051C74
:10F1E000BA352C78002C05D00348044906F097FA6C
:10F1F00000232B70201C38BD74230020399302009B
:10F20000F0B5037B85B0041C002B00D1BFE0051CCA
:10F210001035281C03F012F8071C281C03F013F803
:10F22000061C281C03F014F82268211CAC31BB1A00
:10F230000B6001916168231C721AA168B0331A60D7
:10F24000421A5A6027606660A060143B1A78092A47
:10F2500001D1002200E001321A701B789B00E318F4
:10F260005F62DE645867231C0020A033186058607A
:10F270009860071C231C0A26021C596A013E40188C
:10F28000D96CF6B27F18596F043352180092002ED1
:10F29000F3D10A2106F0AEFE231CA03318600290C1
:10F2A0000A21381C06F0A6FE231CA433221C071CCE
:10F2B0001860A8320A210098039206F09BFE02997A
:10F2C000039B1860CB17CA18F9175A407F18231CE4
:10F2D0004F40BB33642A0ADD0122211CBC311A7065
:10F2E000642F02DD03230B600BE00A6009E0642F4A
:10F2F00006DD01221A70231C0222BC331A6000E0D2
:10F300001E70281C302102F0D1FE019A051C1368E2
:10F31000C722191CC731520091421CD8211CB031A0
:10F320000968C731914216D8430625D52026211CED
:10F33000231C06400122BA31B9331648002E04D0EE
:10F340000A7000221A70144902E00E7013491A70F4
:10F3500006F0E5F910E0D9175B184B40C82B07DC25
:10F36000231CB0331B68DA179B185340C82B03DDEE
:10F37000231C0122B8331A70EB0603D5231C01228B
:10F38000C0331A70290702D5C0340023237005B09A
:10F39000F0BDC04674230020489302003093020061
:10F3A000F0B5051C0E1C10350121041C87B0281C6B
:10F3B000494202F041FE231CC433221C1E60B932B4
:10F3C000002313705370D371023213700132136033
:10F3D000083AA36063602360043A53601360043A00
:10F3E0001360103A1370E218002704335762D76491
:10F3F0005767282BF7D1301C391C01AE06F0C4F832
:10F400003E493F4806F08BF93E49301C02F014FE9D
:10F4100002AB1B782375B368A361337B2377737BBF
:10F420006377B37BA377F37BE377327C631CDA7774
:10F43000727C354EA31CDA77301C02F0D3F8301CF6
:10F44000532102F00CF9301C391C01F0C5FE301CB0
:10F4500002F02CF9061EBE4205D029482B4906F0C1
:10F460005EF9277347E0281C02F05CFE012728495B
:10F47000234806F054F9281C311C277302F086FE3D
:10F48000281C2E21782202F0E3FD281C2F21872240
:10F4900002F0DEFD281C2421082202F0D9FD281CE0
:10F4A0002521032202F0D4FD281C26213A1C02F05B
:10F4B000CFFD281C2721FF2202F0CAFD281C212194
:10F4C000302202F0C5FD281C1D21402202F0C0FDA3
:10F4D000281C2A213A1C02F0BBFD281C2221642290
:10F4E00002F0B6FD281C2321FF2202F0B1FD281CEA
:10F4F000302102F0DBFD201C07B0F0BD5793020065
:10F5000074230020393000007C2200206C9302001C
:10F510007793020008B5002801D006F000F90D200D
:10F52000012106F031F801210D2006F067F8FA20DC
:10F5300005F022FD0D20002106F060F8FA2005F00C
:10F540001BFDF0E7014B01221A707047E0210020FB
:10F55000014B00221A707047E021002038B5084D99
:10F56000041C291C06F07DFA201C291C103006F012
:10F5700078FA201C291C203006F073FA201C38BDB4
:10F5800008930200F0B5414C8DB0071C0E1C211CE5
:10F59000151C06F066FA3B1C1033181C211C029344
:10F5A00006F05FFA3B1C2033181C211C019306F067
:10F5B00058FA211C04A806F054FA311C04A806F0DD
:10F5C000A5FA2B1C002208A804A906F097FB08A99D
:10F5D00004A806F093FA08A806F0FCF904A82C2168
:10F5E00006F087FB051E35DD431C1A1C2C2104A8E0
:10F5F000039306F06DFB00222B1C061C04A908A82F
:10F6000006F07CFB08A9381C06F078FA08A806F07A
:10F61000E1F9039A331C08A804A906F06FFB08A9B6
:10F62000029806F06BFA08A806F0D4F90198211C9C
:10F6300006F06CFA002E22DD721C069B08A804A9B5
:10F6400006F05CFB019808A906F058FA08A806F035
:10F65000C1F914E000222B1C08A804A906F04EFBF7
:10F6600008A9381C06F04AFA08A806F0B3F9211CCC
:10F67000029806F04BFA0198211C06F047FA04A8FC
:10F6800006F0A8F9381C0DB0F0BDC0460893020082
:10F690007FB50D1C2249041C06F0E3F92149684698
:10F6A00006F021FA204E6846311C06F08CFA291C1F
:10F6B00006F07BFA011C201C06F005FA684606F0ED
:10F6C00089F9AB69002B28D0211C684606F00BFA9B
:10F6D000311C684606F077FA291C103106F065FAED
:10F6E000011C201C06F0EFF9684606F073F9AB6ABE
:10F6F000002B12D0211C684606F0F5F9311C684633
:10F7000006F061FA291C203106F04FFA011C201C7A
:10F7100006F0D9F9684606F05DF9201C04B070BD0A
:10F7200008930200E42100208993020010B58AB0FA
:10F7300001A8FFF7ADFF05A80021142208F020FD65
:10F74000039A002301A805A9013206F0A7FA039A3B
:10F7500005A9084802F04CF8074C0849201C05F0A0
:10F76000BFFF01A9201C05F0D0FF01A806F032F967
:10F770000AB010BD0C230020742300208B930200DC
:10F7800070B5041C161C1D1C06F09DF9201C311CB4
:10F79000103006F098F9201C291C203006F093F94F
:10F7A00070BD0000002310B5041C8360C3600360BB
:10F7B000082008F0B9FC6060002803D120680349E4
:10F7C000FFF7A8FE0223201CA36010BD989302003F
:10F7D00030B5051D8DB0041C1749281C06F041F9F1
:10F7E000201C1430FFF7DEFF201C2430FFF7DAFF67
:10F7F00000232370114B10221978684606F097F900
:10F8000004A80F4906F02DF904A908A806F06BF921
:10F81000694608A806F0C9F9011C281C06F053F92E
:10F8200008A806F0D7F804A806F0D4F8684606F051
:10F83000D1F8201C0DB030BD08930200A4000010C8
:10F84000C893020038B5041C0D1E02DC006807498D
:10F8500008E08900406808F0BBFD6060002803D123
:10F8600020680349FFF756FEA56038BDCE9302001D
:10F870000394020038B58268C368041C0D1C9342CF
:10F8800002D15900FFF7DEFFE3686268591C9B0054
:10F89000E1609D5038BDF8B5051C30200E1C171CCA
:10F8A00006F03CFBFAB2311C041CFFF76BFE281C6F
:10F8B0001430211CFFF7DEFFF8BD000008B5031C63
:10F8C0000A1C0248191CFFF7E6FF08BDE0210020D2
:10F8D0007FB5026A002A00D1A2E0013A8169930053
:10F8E00002625C58002A07D0C369D917890FC9186A
:10F8F00089108A4200DC8CE0002C00D190E0684640
:10F90000211CFFF7C5FE474D4749281C05F0E8FEBE
:10F910006946281C05F0F9FE684606F05BF8434985
:10F92000684606F09EF8201C694606F07CF9051C26
:10F93000684606F04FF8002D1AD0251C3C491035BA
:10F94000684606F08EF8281C694606F06CF9061C1D
:10F95000684606F03FF8002E0AD13649684606F0A0
:10F9600080F8281C694606F05EF9684606F032F811
:10F970003149684606F075F86946201C06F053F9CF
:10F98000684606F027F82D49684606F06AF8201CFC
:10F99000694606F048F9051C684606F01BF8002D7C
:10F9A0003ED027491034684606F05BF8201C6946B3
:10F9B00006F039F9051C684606F00CF8002D03D056
:10F9C000204800F0A9F82BE01A49684606F049F8EB
:10F9D000201C694606F027F9051C684605F0FAFF69
:10F9E000002D03D0174800F09CF819E0164968462E
:10F9F00006F037F8201C694606F015F9041C684625
:10FA000005F0E8FF002C0BD00E48022100F08EF824
:10FA100006E0D90FCB1814305910FFF713FF6BE72E
:10FA20007FBDC046742300203D9402004E94020026
:10FA3000529402005594020059940200609402000E
:10FA400067940200542200206E940200F7B5471C10
:10FA500001214942041C381C03F0BEF8154E16491A
:10FA6000301C05F05CFE0421684603F0B5F8381C34
:10FA70006946072208F07BFB00256B46381C2B21CA
:10FA80001D7003F065F9071EAF4205D1301C0B490C
:10FA900005F045FE2770FEE7291C032005F074FDE4
:10FAA000301C074905F03BFE01232572201C237002
:10FAB000FEBDC0467423002075940200939402009A
:10FAC000A594020070B5051C013003F0C5F92B7A2E
:10FAD000041C0020A3420BD0064E0749301C05F041
:10FAE000FFFD301C211C0A2205F054FE2C72201C44
:10FAF00000B270BD74230020B4940200002303718F
:10FB00000373037503777047012301610375704721
:10FB1000012381610377704708B5806900F056FBC7
:10FB200008BD08B5806900F055FB08BD08B58069BF
:10FB300000F054FB08BD1FB5037B002B08D0846880
:10FB4000684605F0D0FF201C694600F0EDFF0AE092
:10FB5000037D002B0AD00469684605F0C4FF201C11
:10FB6000694600F091FC684605F034FF1FBD0B7933
:10FB700010B50C1C002B02D0086800F025F8237F7C
:10FB8000002B02D0A06900F0FDFB10BD38B5037951
:10FB9000041C0D1C002B02D0006800F011F8237F1C
:10FBA000002B03D0A069291C00F03AFB38BD10B52A
:10FBB0000021041CC06805F021FD0023237210BD44
:10FBC0000368591801607047037A10B5041C002BB4
:10FBD00007D0026843689A4203D9FFF7E8FF002381
:10FBE000236010BDD0235B00C35C10B5002B04D193
:10FBF000D1235B00C35C002B04D0D2235B00C4582C
:10FC00000A19C250DA235B00C4580A19C250CE2325
:10FC10005B00C2588918C15010BD0000DD2252009F
:10FC2000835C002B03D000238354012306E0BC2215
:10FC3000FF32815C002901D08354014B18B2704718
:10FC4000FFFF0000031CFC331878002801D00022BD
:10FC50001A707047031CFD331878002801D0002269
:10FC60001A707047031CFE331878002801D0002258
:10FC70001A707047021CFF3211780023994202D09B
:10FC8000FC3013704368181C70470000F0B5037E09
:10FC900085B0051C002B00D19FE11C30019002F0C3
:10FCA000E0FDE86906F03CFE061C286A06F038FE16
:10FCB000041C686A06F034FE2968C823721A5B00C7
:10FCC000EA506B68A968E21ACA235B00EA50CC23A9
:10FCD000421A5B00EA50C0232E606C60A8605B0093
:10FCE000EA5C092A01D1002200E00132EA54EB5C0F
:10FCF0009B00EB18FC33DE605C63D865C2230020F8
:10FD00005B00E850C4235B00E850C6235B00E8506A
:10FD1000071C2B1C0A24061C842149005A1812684F
:10FD20009821490080185A181268AC214900BF1860
:10FD30005A181268013CE4B2B6180433002CEBD117
:10FD40000A2106F057F9C2235B00E8500A21381C4B
:10FD500006F050F9C4235B00E8500A21301C06F07D
:10FD600049F9C6235B006A6BE850AB6BE86B039301
:10FD7000029206F0D5FD211C3922071C019802F0E1
:10FD80007EFDC8235B00EA589549964B52189A426B
:10FD900022D8CA225200AA5852189A421CD84C2380
:10FDA0001840984218D19048904905F0B8FCD023EB
:10FDB0005B00EA5C002A08D0D2225200AA58962A98
:10FDC00003D9A2230122FF3305E0D1225200AA5C0D
:10FDD000002A01D10122EA54D0225200AB5CF42265
:10FDE000161CFF36002B41D0D22040002B587E4CF1
:10FDF000962B34D9B34218D8A221FF316B5C002B6B
:10FE000029D02B1CFE3301221A707949201C05F0E1
:10FE100086FCD220D12200235200400001212B5029
:10FE2000A954D0225200AB5415E0FA22520093425A
:10FE300011D0D02300225B00EA54D1210123D2202B
:10FE4000994040006B542A502A1CFD321370201C2C
:10FE5000684905F064FCA2210023FF316B54D223D2
:10FE60005B00E958201C0A2205F09EFCD1214900C4
:10FE70006B5C002B09D0D2235B00E858C8225200EB
:10FE8000904202D900226A54EA50CE235B00E9581E
:10FE9000B14241D90022EA50C8235B00EA58D31787
:10FEA000D2185A40544B9A4207DCCA225200AA5830
:10FEB000D017121842409A4203DD2B1C0122FC335A
:10FEC0001A70C2235B00E8584C4AC11740184840DA
:10FED0002B1CC4214900FF3390420EDD6C580121D8
:10FEE000E01724184440281CFC301970944202DDAD
:10FEF0000323436010E041600EE06958C8170918F9
:10FF00004140914206DD01221A702B1C0222FC3373
:10FF10005A6001E000221A70394B9F4203DD012232
:10FF2000DC23934006E0374B9F4204DA0122DC23B6
:10FF300052425B00EA52DA235B00E958B1424CD9E5
:10FF40000022EA50A86A06F0EBFC061CE86A06F0FC
:10FF5000E7FC0190029806F0E3FC2B4A2B4C80183A
:10FF6000A04209D9039806F0DBFC274BC018A04239
:10FF700002D9FF18A74230D8D4235B00EA58244B9B
:10FF8000B21AD017121842409A4209DCD622520007
:10FF9000AA5801998A1AD017121842409A421CDDB9
:10FFA000DC235B00EB5A1AB2002A05DD0122DD23B7
:10FFB0009340EA54002206E0002B07D0DD23002204
:10FFC0005B00EA540122BC23FF33EA54D4235B00D4
:10FFD000EE500199D6235B00E95005B0F0BDC04654
:10FFE0006F170000DE2E000074230020BE94020074
:10FFF000C4940200D3940200204E00001027000099
:020000022000DC
:100000008813000078ECFFFFDB050000B60B000052
:10001000DC050000F8B5051C1C35041C0021281C5B
:1000200002F03CFB221C0023FD3213705370D3718D
:100030009370013A5360D2225200A350A222FF32A1
:10004000A354D0225200A354CC225200A360636078
:100050002360A350CA225200A350C8225200A350CA
:10006000C0225200A3548420E218400011189820A6
:10007000002740000F6011185932FF3204330F601F
:100080001760282BEFD12B492B4805F048FB2B4E4E
:10009000301C01F0A7FA301C1D2101F0E0FA301CE1
:1000A000391C01F099F8301C01F000FB061EBE421D
:1000B00005D02148224905F032FB277638E0281C7C
:1000C00002F064FC1F491C4805F029FB012323763C
:1000D000281C311C02F0DEFB281C311C02F00AFC3B
:1000E000281C311C02F030FC281C311C1F22042368
:1000F00002F0E8FA281C311C3822102302F0E2FA40
:10010000281C311C3A22102302F0DCFA281C311C76
:100110003D22102302F0D6FA281C311C3C22102369
:1001200002F0D0FA281C311C3B22102302F0CAFA3C
:10013000201CF8BDE2940200742300207C220020E1
:10014000F79402000295020070B5041C01F0ECFE69
:10015000201C07221A49303008F009F819491A48BA
:1001600005F0DDFA231C373364221A704B225A70D3
:1001700019229A70221C3A32032313705370937021
:10018000D370231C3E3300251D705D70022004F0E7
:10019000B5FF261C1C3605F001FC201C012101F0D6
:1001A0001DFE301C702101F099FE301C0F2101F062
:1001B00061FE301C291C01F077FE201C70BDC0467A
:1001C000149502007594020074230020443001232A
:1001D00003707047443000230370704730B5041C2F
:1001E00085B0012915D0022916D1051C1C35281C03
:1001F00001F092FE08230093019300210123029352
:10020000201C0A1C054B01F0D1FC281C01F09AFEB1
:1002100002E01C3001F080FE05B030BD43950200C5
:10022000036C591801647047F0B5021C041C1C32A1
:10023000251C8BB0101C3735079201F06DFE2A7813
:100240000023062A02D8A218303213784C4ADB0069
:10025000D318082200920192002101220292201C50
:100260000A1C01F0A3FC2B78013BDBB22B70002BA6
:1002700004D10520B42105F0A3FB2870231C3833DA
:1002800005931D785E78013DEDB21D700133B542D6
:1002900064D8221C3C32069205201856311C0027D7
:1002A0006843D75705F0A6FE3F1A3BB2271C0893B8
:1002B0003D370022BA563F2009922056311C684330
:1002C00005F098FE099B00211A1A022312B200932E
:1002D0000191201C089901F022FC059A1378002B4B
:1002E00049D1069B1A78231C3A331A703A785A700F
:1002F000072005F059FB069A1070072005F054FB03
:10030000231C3D331870069BC0B21978221CCE1EE8
:10031000C51E231CF6B2EDB23E323F3316701D707F
:1003200076B26DB276436D437519092DE0DC251C5C
:100330003A352D78033A491BD17012780F21801A73
:100340001870032005F03CFB231C3933187078210A
:10035000C0B205F035FB383420700CE0231C3A3372
:100360000021012259569A56002002230190009341
:10037000201C01F0D4FB079801F0E4FD0BB0F0BDA8
:100380001B95020010B5031C44331B78041C002B82
:1003900006D0036C0A2B03D9FFF746FF0023236422
:1003A00010BD4069704737B500246B461C705C7007
:1003B0009C7003680A1C1D6801AB1C705C709C700B
:1003C0006946A84737BD0000024B04225A6182618A
:1003D000C361704704050050C8204000704708B54D
:1003E000017801F04FFA08BDF0B5214E89B03568AB
:1003F000012701903D401F4C21D1301C01F0BDFA76
:1004000000281CD0FF2323736373A373E373237447
:100410006374194B65601968A7746561A56000294C
:1004200000D11C60154A1368002B00D09C6000238B
:100430002384134B301C1460236001F0A2FA0023C4
:10044000201C02A9072201F079FA0E4864230370E8
:10045000002302A9FF22CA54CA1800210333517095
:100460009170152BF5D1FFF7BAFF019809B0F0BDD7
:10047000DC210020B82100204C2300205C23002038
:10048000589502003C230020F8B5041C0F1C081CE2
:100490001D4905F0D5FB061E01D0002328E0381CBD
:1004A0001A4905F0CDFB051E07D06670A670E670F0
:1004B00026716671A671E67121E0381C144905F0B9
:1004C000BFFB002807D06570A570E57025716571C8
:1004D000A571E57113E0381C0E4905F0B1FB002849
:1004E00005D1381C0C4905F0ABFB00280AD0FF23CE
:1004F0006370A370E37023716371A371E3710748A4
:10050000FFF76DFFF8BDC0465594020078950200D4
:100510007C95020082950200879502003C23002012
:1005200010B50B7B0A1C03734B7B123243738B7B1E
:100530008373CB7BC3730B7C03744B7C43740B685A
:1005400003608C7C8474CC7CC474927802754B7D7F
:1005500043754B68896943608360816110BD0023E6
:1005600083617047F0B585B00A9C0393A36801339B
:10057000A360E3680133E36023690133236100234F
:1005800094461D1C039A1E1C1F1C63465E786578EA
:100590002D06360600D16D40761901D3F643360696
:1005A000C046E368360E5E43657823795D1B65704F
:1005B0003704029701960095009D019E029F4160BD
:1005C000C046C0467F0000D28160C046C0460123BD
:1005D000013BFDD1C04681600123013BFDD1C046F6
:1005E0004160C046C0467F0000D2816063461E78ED
:1005F000C046C046C04681600123013BFDD1C046D4
:100600004160C046C0467F0000D2816025782D063B
:10061000360600D16D4081600123013BFDD1C0460B
:100620004160C046C0467F0000D28160761901D388
:10063000F6433606C046C04681600123013BFDD12A
:10064000C0464160C046C0467F0000D28160A368BA
:10065000360E5E43C046C04681600123013BFDD19A
:10066000C0464160C046C0467F0000D28160257808
:10067000E3785D1B257081600123013BFDD1C046FD
:100680004160C046C0467F0000D28160C046C0467F
:100690000123013BFDD1C04681600123013BFDD117
:1006A000C0464160C046C0467F0000D2816037042A
:1006B000C0460123013BFDD1C04681600123013BBF
:1006C000FDD1C0464160C046C0467F0000D2816077
:1006D000C046C0460123013BFDD1C04681600123D5
:1006E000013BFDD1C0464160C046C0467F0000D2FC
:1006F000816063469E78C046C046C0468160012343
:10070000013BFDD1C0464160C046C0467F0000D2DB
:100710008160A5782D06360600D16D4081600123E9
:10072000013BFDD1C0464160C046C0467F0000D2BB
:100730008160761901D3F6433606C046C046816013
:100740000123013BFDD1C0464160C046C0467F0049
:1007500000D281602369360E5E43C046C046816088
:100760000123013BFDD1C0464160C046C0467F0029
:1007700000D28160A57863795D1BA570816001233B
:10078000013BFDD1C0464160C046C0467F0000D25B
:100790008160C046C0460123013BFDD1C046816057
:1007A0000123013BFDD1C0464160C046C0467F00E9
:1007B00000D281603704C0460123013BFDD1C04611
:1007C00081600123013BFDD1C0464160C046C04667
:1007D0007F0000D28160A3799C44C046C046C046D9
:1007E00081600123013BFDD1C0464160C046C04647
:1007F0007F0000D2816063465E78C046C046C04636
:1008000081600123013BFDD1C0464160C046C04626
:100810007F0000D2816065782D06360600D16D40DC
:1008200081600123013BFDD1C0464160C046C04606
:100830007F0000D28160761901D3F6433606C046A8
:10084000C04681600123013BFDD1C0464160C046E6
:10085000C0467F0000D28160E368360E5E43C0462A
:10086000C04681600123013BFDD1C0464160C046C6
:10087000C0467F0000D28160657823795D1B65707A
:1008800081600123013BFDD1C0464160C046C046A6
:100890007F0000D28160C046C0460123013BFDD1EC
:1008A000C04681600123013BFDD1C0464160C04686
:1008B000C0467F0000D281603704C0460123013B5F
:1008C000FDD1C046816002970196009596270D4D97
:1008D000A826FF00F600AF51ED680B4D00266E64B0
:1008E00062B6013A72B66D6C002D04D0054B012240
:1008F0005A60002003E0002A00D05DE6039805B0AE
:10090000F0BDC04600900040FC90004030B5037B35
:1009100089B003A90B70437B154C4B70837B154A40
:100920008B70837C01250593C37C0693037D07931D
:10093000C37BCB70037C0B71437C4B71437D8B710C
:100940000023A350A222D200A350221CFC325364E5
:10095000A122D200A35080239B00E5500CC8256043
:10096000054800910421FFF7FDFD656009B030BD29
:1009700000900040040500000405005030B5041C40
:1009800089B00D1C04F0F4FA238CC01A80B24A28F6
:10099000F8D972B601A8291CFFF7C2FD01A8FFF71C
:1009A000B5FF00280BD162B64B2004F0F3FA72B603
:1009B00001A8291CFFF7B4FD01A8FFF7A7FF62B645
:1009C00004F0D6FA208409B030BD000070B5194B90
:1009D00007211A7801320A401A70012313408B4014
:1009E000910701D540210B4304210A4201D0202266
:1009F00013431033DEB2041C0025A17C0020814289
:100A000005D08020400005F0F5FA0130C0B2431C4B
:100A100073431B12DBB2E073002B00D0013B237346
:100A2000002801D00138E07301350134032DE4D1F1
:100A300070BDC046B421002070B588B0019119780E
:100A400001AC161C6660A660A1745978827CE174C2
:100A50009B78051C2375012A03D1201CFFF7B6FFE4
:100A600006E0002363742374E373A3736373237337
:100A70000023201C311C6375FFF771FD2B68281CB7
:100A80009B69211C984708B070BD70B588B0019172
:100A9000197801AC161C6660A660A1745978827C36
:100AA000E1749B78051C2375012A03D1201CFFF7F4
:100AB0008DFF06E0002363742374E373A3736373F1
:100AC00023730323201C311C6375FFF748FD2B683B
:100AD000281C9B69211C984708B070BD38B5081CBC
:100AE0000021151C1C1C05F0C1F80021102207F084
:100AF0009DFDFF21030C0B402B60030A0B4023607C
:100B0000049B0140196038BD70B5161C041CC068F8
:100B10001D1C04F0DBFB311C206904F0D7FB291CF1
:100B2000606904F0D3FB70BDF0B5041C8BB0081CE9
:100B30000D1C314905F084F8061E05D0FE239B05E7
:100B40000093201C002134E0281C2C4905F078F883
:100B5000071E07D0FE239B050093201CFF21321C9B
:100B6000331C45E0281C264905F06AF8061E07D00C
:100B7000FE239B050093201C391CFF223B1C37E001
:100B8000281C204905F05CF8002807D0FE239B05AF
:100B90000093201C311C321CFF2329E0281C1A4919
:100BA00005F04EF8002807D0FE239B050093201C7B
:100BB000FF210A1C0B1C1BE0A86806281AD1291C5F
:100BC00006A804F090FF05AB06A903AA0093201C19
:100BD00004ABFFF783FF06A804F0FCFE0498039B18
:100BE000C2B20598D9B2C3B2FE2080050090201C85
:100BF000FFF78AFF0BB0F0BD559402007895020014
:100C00007C9502008295020087950200F0B5104F96
:100C1000061D041C85B00D1C301C391C04F021FF7E
:100C2000A5610025391C2570684604F01AFF694645
:100C3000301C04F063FF684604F0CCFE201CE56124
:100C400025626562A562E562256305B0F0BDC04618
:100C500008930200026A08B55318826A03625318A7
:100C6000026B836253180363406AFEF7BBFF08BD43
:100C7000F0B50D1D9BB001900C1C281C6F4904F0B1
:100C800045FF637D002B1FD0236A632B1CD90023F3
:100C9000E0692362FEF7B4FAE069FEF78DFA0028F6
:100CA00002D00EA8664906E0E069FEF797FA002830
:100CB0000AD064490EA804F0D4FE281C0EA904F042
:100CC0001DFF0EA804F086FE237D002B3FD0A36AF3
:100CD000632B3CD90023A362606AFEF79FFF061CCA
:100CE000606AFEF7D3FF606AFEF7B4FF002802D007
:100CF0000EA8554922E0606AFEF7B4FF002802D032
:100D00000EA852491AE0606AFEF79CFF002802D044
:100D10000EA84F4912E0606AFEF7ACFF002802D02F
:100D20000EA84C490AE0002E11D0012E02D10EA8C7
:100D3000494903E001360AD148490EA804F091FE62
:100D4000281C0EA904F0DAFE0EA804F043FEA37DD1
:100D5000002B31D0236B632B2ED900232363E06A51
:100D6000FEF7B0FE061E27DD0A22311C06A804F09D
:100D7000F0FE3B490AA804F074FE06A90AA804F094
:100D800014FF011C0EA804F0AEFE0EA9281C04F0EE
:100D9000B5FE0EA804F01EFE0AA804F01BFE314F9B
:100DA0003149381C04F09CFC381C311C0A2204F028
:100DB00023FD06A804F00EFE204E0EA8311C04F000
:100DC00050FE281C0EA904F02EFF071C0EA804F0EC
:100DD00001FE002F2AD10EA8FEF7C0FB291C02A895
:100DE00004F081FE311C06A804F03BFE311C0AA869
:100DF00004F037FE06AA0AAB02A90EA8FEF7C0FC53
:100E00000AA804F0E7FD06A804F0E4FD02A804F037
:100E1000E1FD0EA9A069FEF789FC16A804F0DAFD31
:100E200012A804F0D7FD0EA804F0D4FD0198291CE7
:100E300004F059FE01981BB0F0BDC04608930200B3
:100E40008D95020098950200A9950200A3950200D5
:100E5000AD950200B3950200B9950200B895020065
:100E6000C295020074230020CC950200C1610B7B67
:100E70004375704741620B7E0375704738B5041C9B
:100E80000D1C0448044904F04AFC0123E562A375E3
:100E900038BDC04674230020D495020010B5041C50
:100EA000043004F097FD201C10BD000010B5054C67
:100EB0000549201C04F033FC201C044904F02FFCDD
:100EC00010BDC04674230020DA950200E3950200AD
:100ED00038B5084C636C002B0AD0074D07482968C9
:100EE000FFF7B8FE29680648FEF750FE002363644A
:100EF00038BDC046FC900040042000201C22002089
:100F00005422002038B5041C0025806A07F016F929
:100F1000A5626562E5622563A06907F00FF9A56126
:100F20006561E5612562201D04F054FD201C38BD7B
:100F30001FB50B496846FFF79BFE684604F04AFD63
:100F400008496846FEF713FE684604F043FD06486C
:100F5000FEF7BEFC0A2004F00FF805B000BDC04645
:100F60001C22002054220020E021002038B5124A23
:100F7000124C012500236560A350A122D200A3508A
:100F8000A2230920DB00E0500D4BE56019681F2209
:100F90004A431B680B499B089A18A823DB00E250C0
:100FA0008022C12382409B00E25080239B00E550B9
:100FB00003F05EFF256038BD04050000009000408E
:100FC00004200020D10E020070B50C4C201CFEF74E
:100FD000FFFB0B4D201C2A1C0A4904F091FF0A4E0E
:100FE000211C301CFFF712FE2A1C301C074904F09C
:100FF00087FF0748FEF782FD70BDC046E021002054
:1010000000200020050F02001C2200209D0E02007F
:1010100054220020F0B53A4B962185B00122394880
:1010200089011A7004F00AFC62B6C82004F076FF49
:101030000421041CFEF7B4F9334FDE2040003C606D
:1010400004F06CFF041CFEF7E5FF304E092034600D
:1010500004F064FF0021041CFEF7F8FC2C4D3968F5
:101060002C602C4C201CFFF701FF3168201CFFF77F
:1010700001FF2968201CFFF701FF274A01210320F7
:1010800002F092FA042004F049FF041CFFF7ACF9C7
:10109000224E4820346004F041FF0021041CFFF779
:1010A00053F81F4D31682C601E4C201CFEF72CFDA0
:1010B00068461D4904F0D5FC6946201CFEF73BFD3F
:1010C000684604F087FC2968201CFEF721FD1748BC
:1010D00008220023694604300093019304F0DEFDEA
:1010E000134800AB436014235B42836200F022FB91
:1010F0001049044804F013FBFFF738FF05B0F0BDBA
:101100007123002074230020742200201822002064
:10111000502200201C220020AD0E02007822002068
:101120001422002054220020EB950200E021002030
:101130000C230020F195020070B5031C8C331B7842
:10114000022B01D000231BE0002393421AD0051C80
:101150005A352C781F2C17D8661C2E70CD5C0419BC
:101160003834A5700133F0E7051C7C352C781F2C32
:101170000AD8661C2E70CD5C04195834E570013312
:101180009342F1D1101C00E0181C70BD031C3833D1
:1011900037301A780378D01A7047021C011C373296
:1011A000383113780978994204D9591C1170C31841
:1011B000D87D01E0012040427047031C021C3733F8
:1011C00038321B7812789A4202D9C018C07D01E0EB
:1011D000012040427047704710B5021C8C321278D3
:1011E000031C041C022A0AD15A34227800201F2A28
:1011F00010D89B18501C38332070997009E07C344B
:10120000227800201F2A05D89B18501C58332070C4
:10121000D970012010BD0000FA22920082600B4AB2
:1012200000230832026064220261FF228275021CE0
:10123000373243601370537093702332137021322E
:10124000537013700132D160137470471896020006
:10125000F7B5071C88373B68A022D2009958A02513
:10126000019100219950427D284BC132FF32ED059A
:1012700092005351027D0126C132FF329200535138
:10128000027D331C93401A1CA123DB00EA50427DEF
:10129000311C9140E950041C042003F07BFEA22382
:1012A000DB00E958227DD140314201D1132523E0F2
:1012B000EA58637DDA403242F8D0012020E0627DB6
:1012C000012393401A1CA026114BF605F25004206E
:1012D00003F060FE627D0121A1239140DB00F1500B
:1012E000042003F057FEA223DB00F258237DDA40EE
:1012F000131C01221342E0D1013D002DDFD1281C37
:101300003A680199A023DB00D150FEBD0D07000013
:101310000C05000038B5417D234AC131A023FF31BF
:10132000DB058900CA50017D051CC131FF318900F0
:101330008835CA502B6800211A1CFC32D16011621A
:10134000417DA122D2009950017D184A041C995078
:101350000269FA2A06D0C82149008A4204D0CC2268
:10136000520403E0802200E0CD22D20410495A50FA
:10137000A07DFF2809D103F011FFC0B2A075FF289E
:1013800003D10C480C4904F0CAF90021A07D0A1CC5
:1013900002F00CF82A68A0230521DB00D150201CA4
:1013A000FFF756FF012038BD0C0700000C050000B8
:1013B0002405000074230020FB950200F8B5071CEB
:1013C00088373B68094EA025ED0000225A51041CC5
:1013D0009A51052003F0DEFD3B6801229A51052257
:1013E0005A51201CFFF796FFF8BDC046FC0F0000C5
:1013F000F0B585B0041C0191151C029301D10020A9
:101400008FE0061C8836807D012A08D1029A012AC5
:1014100005D132689C235B00D118143204E0326895
:101420009C235B00D1181C3201F0C0FF33680122FD
:101430001A603D4F00220092261C883633681A1C21
:10144000FC32D16800292ED1013F002FF4D10021B8
:101450000A1CA07D01F0AAFF3368344A0220995883
:1014600001400CD09958084398501A1C0021FC32B6
:101470009160012159619368002BFCD0BFE79D5812
:10148000042635400BD0985806439E501A1CFC3257
:101490009160012159619368002BFCD0AFE7201CBB
:1014A000FFF78CFFABE7002FD1D00021D160019A6C
:1014B000013D01320392A322D2009B58019AEDB262
:1014C0001370009B0133DBB20093012D0BD1029B03
:1014D000012B0AD132689C235B00D118A07D143205
:1014E00001F064FF01E0002D0AD0142003F052FD4A
:1014F000231C88331B6801221A62039A01929BE71E
:10150000029B012B07D131680B1CFC339A68002A1F
:10151000FAD000229A600021A07D0A1C01F046FF4B
:10152000009805B0F0BDC04610270000C4040000BC
:10153000F8B50425002A4DD0041C88340D782468A1
:101540004E1C254965500125A560244D211CFC3108
:101550000F6A002F27D1013D002DF7D1204B022526
:10156000E2582A400AD0E2581543E55000238B6028
:10157000012363618B68002BFCD010E0E658042542
:101580002E4209D0E0580543E55001238A6063618B
:101590008B68002BFCD004E0FFF710FF1AE0022557
:1015A00018E0032516E0002DD8D0013A0027D2B26A
:1015B0000F62BA4204D03178074F0136E151C5E7D6
:1015C000012B01D0002505E08A6063618B68002B48
:1015D000FCD0F7E7281CF8BD1C0500001027000010
:1015E000C404000010B5052343750623041C0375CD
:1015F000FFF790FE8C340123237010BD38B5041C16
:10160000202A03D8002082420CD000E02022201C97
:1016100088300568B120C0002950211C201C1731DA
:10162000FFF7E6FE231C3733002238341A7020708F
:1016300038BD08B50123FFF7E1FF08BD08B5C9B201
:10164000D2B20123FFF7DAFF08BD031C8C3302225C
:101650001A70533B19705A30002303707047031CF3
:101660008C3302221A70533B19705A3000230370D6
:10167000704738B5051C5A352A78041C0B1C042009
:10168000002A0DD0221C883211684F3A1078B122FE
:10169000D2008850211C2A78201C3A31FFF748FFDD
:1016A00000232B708C340123237038BD08B5012131
:1016B000FFF7DFFF08BD000008B502480249FFF749
:1016C000ABFD08BD7C22002000400040144BF0B56B
:1016D00001261E60134B85B00360134B0025436049
:1016E000124B1027041C836005733A1C684610498E
:1016F00006F03DFD201C3A1C69460D3006F037FD12
:10170000E31CC522E5832584DA7750236362042332
:10171000A362231C2C33201C1E7005B0F0BDC046F4
:1017200028240020089302004896020050960200E8
:1017300038960200204B10B51B78041C002B12D1E8
:101740001E4B1B78002B0ED001F0C0FB96239B0193
:10175000984208DD1A4C2078002803D0013401F0AB
:10176000B1FCF8E7FEE72268164B211C1A6062689C
:10177000154B0D311A60A268144B15481A60227B74
:10178000144B1A70102206F0F2FCE28B124B1A80F6
:10179000228C124B1A80E31CDA7F114B1A70626A9A
:1017A000104B1A60A26A104B2C341A7022780F4B1F
:1017B0001A7002F01DF810BD712300207023002064
:1017C00057960200042500202820002044200020F5
:1017D0002F2000209824002008250020902400209D
:1017E0002E20002024200020402000203F20002028
:1017F00008B5D2B2081C111C02F0C2F908BD0000E5
:1018000008B50248FFF762FF08BDC0460C23002060
:10181000002330B50370437083709A4211D00C1CC2
:101820000C34E55C0334E45C002D07D0002C05D0BB
:10183000013501346C435443240CC4540133032B4D
:10184000EDD130BD70B50D4C061C23685A1C2260CA
:101850008B4211DB03F088FB2368094D011CFA2041
:10186000800058432B68C91A04F076FB002370806F
:10187000236003F079FB286070BDC0465023002030
:1018800058230020F0B5051C87B00E1C6A681C4C5C
:10189000002A06D003F06CFB23686A68C01A9042E5
:1018A000F4D303F065FBEB682060002B03D0301C01
:1018B000A9689847061C134B1C68002C1AD0A37CFF
:1018C00001936B88632B01D80023A374236862689B
:1018D0005F686369211C029205A8321C0393FFF71D
:1018E00097FF201C039A029905ABB847019AA2748E
:1018F000A468E2E7281C1921FFF7A4FF07B0F0BD98
:10190000542300204C23002010B5041C002A09D0C9
:1019100000290FD0084804F06DFB6368984206D296
:10192000181C04E0002904D0034804F063FB606045
:1019300000E0416010BDC04640420F00F8B5041CF5
:101940000F1C161C1D1E01DC151C00262368201C04
:101950009B68984703235E432368BF1967606561EE
:101960005B69201C98470122011C0248FFF7CCFF4D
:10197000201CF8BD3C2300207047007843425841AA
:101980007047012303707047044BFF221A70002236
:101990005A80DA60012252429A6070473C2300204C
:1019A000F0B587B01E1C0CAB071C151C00201B5E7D
:1019B0000DAA12880C1C591B0492CA178918514091
:1019C000321BD01712184240914208DD321C01210F
:1019D0001E1C131C221C01912C1C151C01E0002252
:1019E0000192B44205DD2A1C1D1C131C221C341C50
:1019F000161C321B92B202925A1BD1175018484043
:101A00000590029802B2D10F8A18521092B2009239
:101A10009D4202DA012103911FE0154A03921CE066
:101A200001983B6800281BD09968381C8C46221C02
:101A3000291C049BE04700980599431A9BB29AB26F
:101A4000009212B2002A06DA029903985B182D1848
:101A50009BB22DB20093013424B2B442E0DD05E024
:101A60009A68381C9446211C2A1CE2E707B0F0BD96
:101A7000FFFF0000F0B585B01F1C0AAB151C0E1C43
:101A80000022995E0BAB1B880391029302990368B5
:101A900000915A69311C94463B1C2A1C041CE047E7
:101AA00002992368039A00915969013A52198C46A8
:101AB000201C311C3B1C12B2E047029A23680092A2
:101AC0001969201C8C462A1C311C039BE047029A92
:101AD0002368013F0092BE1931B21F69201C2A1CE5
:101AE000039BB84705B0F0BD37B5013B0C1C06A9F8
:101AF0000D889B1801681BB200930195CD68231CCB
:101B0000211CA84737BD37B506AC2588013B0468C2
:101B100001955B1800921BB2E468A04737BDF0B591
:101B200087B003930CAB0D1C171C0022995E0DAB04
:101B30001B88061C049105932C1C03996B189C426E
:101B40000CDA0599336800911A69211C9446301CFF
:101B50003A1C049B0134E04724B2EEE707B0F0BD25
:101B600037B50C24035F0E25445F02680191009491
:101B70000021D4690A1CA04737BD704710B50A4C34
:101B80004281C281012200230834018181815142B6
:101B9000436004604376038243820276C18281827D
:101BA0008276C37610BDC04600970200F0B589B0BA
:101BB00005930EAB071C03910021585E0FAB0190FB
:101BC000049200201A5E10AB1B8806920793019BBB
:101BD00000240733DA17520FD318DB100293251CA9
:101BE00006982BB2834221DA0026B1B2019A0BB2D9
:101BF000934217DA0598DB100219D35C07220A40DA
:101C00008020104118420BD03B68039A0498891831
:101C10002A18986809B2844612B2381C079BE0471C
:101C20000136E2E7029B0135E418D9E709B0F0BDBF
:101C3000F0B591B00A9216AA128809910B9217AAD0
:101C40001288041C0C9218AA15780C21425E09997E
:101C50008A4200DC8AE00E21425E0A998A4200DC58
:101C600084E006226A4309998A18002A7EDD0A99CF
:101C7000EA008A18002A79DDC27E002A03D1AF2B40
:101C800001D90133DBB205225A4300230E9206220A
:101C90000492089308994BB2052B04D0344A0E994C
:101CA0005218D25C00E000229BB206936B43099964
:101CB000039289B20A9ACB1896B29BB20D93331C49
:101CC00008339BB205910F93371C0796039BDB07E4
:101CD00014D52068012D09D1069A059BD118836877
:101CE00009B29C463AB2201C0B9B17E00D9A33B206
:101CF00002932BB211B200930B9A19E00C9B0B9933
:101D00008B421BD02068012D0AD1069A059BD11861
:101D1000836809B29C460C9B3AB2201CE0470DE058
:101D2000079B0D9A1BB211B202930C9A2BB200932F
:101D30000192C269201C9446029AE047039B0799CE
:101D40005B08039301374B190F9A76199BB2BFB208
:101D5000B6B207939742B9D1089B0133DBB208931F
:101D6000049B013BDBB20493002B93D111B0F0BD77
:101D7000309702001FB5041C0B1E0A2B01D1037EF5
:101D800021E00D2925D01020215E1220225EA08A9C
:101D90000090E08A0190207E0290201CFFF748FF0F
:101DA000237E06225A43218A5218A17E92B22282B1
:101DB00000290ED00C21605E06214942594312B21F
:101DC00041188A4205DD628ADB009B18638200238A
:101DD0002382012004B010BD407E704703231940C8
:101DE000417603894289012904D0032902D08381E5
:101DF000C28101E08281C3817047F7B5141C92B2A1
:101E0000061C0D1C01930092072A2BD88FB2072FB6
:101E100028D8FFF7E1FF0723022808D003280CD0B9
:101E200001280DD1009A2C1C9B1A1DB208E0009AC3
:101E3000DD1B9C1A2DB224B202E0DF1B251C3CB234
:101E4000072307351D40019A01236400AB40361972
:101E50001D1C002A03D0B28B1543B58302E0B38B5F
:101E6000AB43B383F7BD08B50368C9B21B68984795
:101E700008BD000070B50B4C0D1C017C201CFFF749
:101E8000E4FB261C2B1C0F2D00D90F2320214942D7
:101E90000B43D9B2201CFFF7E6FF301CFFF706FC0E
:101EA00070BDC0467C22002038B50B4D0C1C017C57
:101EB000281CFFF7CAFB03220023A2425B415B42BE
:101EC0001C40640081212143281CFFF7CCFF281C03
:101ED000FFF7ECFB38BDC0467C22002038B50D4D25
:101EE000041C0174281CFFF77DFB281C217CFFF7D4
:101EF000ACFB281C2121FFF7B6FF281CFFF7D6FBFF
:101F0000201C0021FFF7D0FF201C0F21FFF7B2FF9C
:101F100038BDC0467C22002000230022C25202337A
:101F2000102BFAD17047000010B508210A1C041CC0
:101F3000FFF724FE024B201C0833236010BDC0466F
:101F4000309C020070B50D4D017C061C281CFFF76B
:101F50007CFB281C0021FFF73FF90024315D281C81
:101F6000FFF781FF315B281C09120234FFF77BFF6A
:101F7000102CF3D1281CFFF799FB70BD7C220020A8
:101F8000014B03607047C0461893020010B5034B25
:101F9000041C036003F0BBFF201C10BD189302005B
:101FA000F0B585B0071C0191029203930725002428
:101FB000381C0021012603F021FB039B311CA940A2
:101FC0001940029803F01AFB381C311C640003F01E
:101FD00015FB0198E4B203F02DFB002800D0344338
:101FE000013DE5D2201C05B0F0BD000038B5282227
:101FF0000C1C051C081C002106F0C2F8201C0A4914
:102000000B2206F074FA0023E372AD686362074B9B
:102010000122A361064BE260E361064B06222561C3
:102020006261236238BDC0466F9302000AE81CC398
:102030000AE81C43A3AF203D044B816008330360D2
:1020400000230373012343747047C046609C020061
:1020500070B50E1C417C041C151C002910D0124CBC
:102060005321201CFFF7FBFA311C201CFFF7B4F8AA
:10207000201C291CFFF7B0F8201CFFF717FB12E00B
:10208000007C03F0BBFAE17BA27B331C607BFFF793
:1020900087FFE17B607BA27B2B1CFFF781FF207C0D
:1020A000012103F0ABFA70BD7C22002038B50D1C75
:1020B000417C041C002915D0164C5321201CFFF72D
:1020C000CEFA291C201CFFF787F8201CFFF7EEFA38
:1020D00053210122201CFFF7B1FA201CFFF75DF805
:1020E000C0B215E0007C03F089FA80232B43E17B2A
:1020F000A27B607BFFF754FFE17BA27BFF23607B29
:10210000FFF74EFF0121051C207C03F077FA281C05
:1021100038BDC0467C22002008B50021FFF7C6FF6D
:1021200008BD000038B5457C041C002D03D01548BF
:10213000FFF758FA13E0007C012103F025FA607BD9
:10214000012103F021FA607B012103F057FAA07B03
:10215000012103F019FAE07B291C03F015FA201C79
:10216000FFF7DAFF011EE52905D00748102203F02A
:1021700011FB002005E0201C2D210822FFF768FF3D
:10218000012038BD7C2200207423002038B50D1CAE
:102190003121041CFFF78AFFF023082218402A434C
:1021A00002433121201CFFF753FF257338BD000087
:1021B00070B50D1C417C041C00291CD01E4C532101
:1021C000201CFFF74CFA291C201CFFF705F8201CE7
:1021D000FFF76CFA53210222201CFFF72FFA201C74
:1021E000FEF7DBFF051C201CFEF7D7FFC0B2000284
:1021F000EDB228431EE0007C03F000FAC0232B431D
:10220000E17BA27B607BFFF7CBFEE17BA27BFF2320
:10221000607BFFF7C5FEE17B061CA27BFF23607B92
:10222000FFF7BEFE05022E43207CB5B2012103F06C
:10223000E5F9281C00B270BD7C22002008B53221CF
:10224000FFF7B6FF08BD08B53421FFF7B1FF08BDA1
:1022500008B53621FFF7ACFF08BD00000000000004
:1022600070B524220C1C061C081C002105F088FFF8
:1022700024232360B3680125636000232361A560E4
:10228000301CFFF7DBFF05F01FFE184B164A05F068
:102290002DF8174A174B05F029F805F053FE606139
:1022A000301CFFF7D0FF05F00FFE104B0E4A05F073
:1022B0001DF80F4A0F4B05F019F805F043FEA06119
:1022C000301CFFF7C5FF05F0FFFD084B064A05F07F
:1022D0000DF8074A074B05F009F805F033FEE061F9
:1022E000281C70BDC046C046FCA9F1D24D62703FAB
:1022F00000000040019D234038B5046AC3696210A4
:102300008068E50701D58458E3588018984738BDA0
:10231000014B03607047C0461893020010B5034B91
:10232000041C036003F0F3FD201C10BD1893020091
:1023300070B50269041C0D1CC36851108068D60773
:1023400001D54258D35840189847A269A068531045
:102350006469D60701D5C1580C59C61802F004FEAD
:10236000291C021C301CA04770BD000070B5051C64
:102370000C1C161C081C2422002105F001FF24233C
:1023800023602B6C696B63600123A360286826615E
:1023900004F09CF90E4904F073F80E4904F096F924
:1023A0006061696B686804F091F9094904F068F8A4
:1023B000084904F08BF9A061696BA86804F086F9FC
:1023C000034904F05DF8034904F080F9E06170BD51
:1023D00000007A440AE81C4170B5051C0C1C161C50
:1023E000081C2422002105F0CBFE242323606B6C03
:1023F000A96B63600223A360E868266104F066F9B4
:102400000A4904F03DF86061A96B286904F05EF99F
:10241000064904F035F8A061A96B686904F056F923
:10242000024904F02DF8E06170BDC04600007A4416
:1024300070B5051C0C1C161C081C2422002105F07C
:102440009FFE242323602B6CE96B63600423A8693F
:10245000A360266104F03AF96061E96BE86904F071
:1024600035F9A061286AE96B04F030F9E06170BDCC
:1024700070B50C1C051C161C081C2422002105F03C
:102480007FFE24232360EB6C266163600D23A36031
:102490002423E85E04F064FAF821890504F016F9B3
:1024A000024903F089FE606170BDC0460000A8418A
:1024B00038B528220C1C051C081C002105F060FE04
:1024C000201C08490B2206F012F80023E3722D6C41
:1024D0000122636200232561E2606261A361E3611E
:1024E000236238BDA09C020038B528220C1C051CB4
:1024F000081C002105F044FE201C09490B2205F0B0
:10250000F6FF0023E3726D6C0122E2606362022237
:10251000002325616261A361E361236238BDC04687
:10252000AA9C020038B528220C1C051C081C00219E
:1025300005F026FE201C09490B2205F0D8FF0023D8
:10254000E372AD6C0122E260636204220023256124
:102550006261A361E361236238BDC046B49C02009E
:1025600038B528220C1C051C081C002105F008FEAB
:10257000201C09490B2205F0BAFF0023E372ED6C21
:102580000122E26063620D22002325616261A36182
:10259000E361236238BDC046BE9C020030B50B79B2
:1025A0008A6803718260031C0A1C0C330C3230CA27
:1025B00030C330CA30C31C3114C914C330BD00004D
:1025C00070B5C31D041C0120D87713182364931C15
:1025D0006364D31CA364244B8AB00493234B04325A
:1025E000234E0693201C234B0025E264A162503049
:1025F00001A9089301960394059507950995FFF79E
:10260000CDFF1D4B201C04931C4B01A906931C4BB2
:102610007430089301960394059507950995FFF783
:10262000BDFF184B201C0493174B01A90693174BB1
:102630009830089301960394059507950995FFF73F
:10264000ADFF134B201C0493124B01A90693124BB0
:10265000BC30019603940595079508930995FFF7FB
:102660009DFF0AB070BDC046692702006D230200BD
:10267000889C0200B1240200B1270200D923020085
:10268000E9240200F9270200312402002525020076
:1026900041280200712402006125020010B5074B99
:1026A0000A1C011C983103654367041C0B604B62D4
:1026B0000349FFF785FF201C10BDC046889C02001F
:1026C0007C220020F8B5041C171C1E1C1D250129A6
:1026D00000D16B25E31DDB7F002B10D0A06A291CE5
:1026E000FEF7B3FFA06A391C03681B689847A06A0D
:1026F000311C03681B689847A06AFEF7D7FFF8BD36
:10270000F8B5041C171C1D1C1D26012900D16B26C1
:10271000E31DDB7F002B25D0A06A311CFEF795FF5F
:10272000A06A391C03681B689847A06AFEF7BEFFC1
:10273000A06A311C2A1CFEF77CFFA06A03689B6814
:102740009847A842F9DB069E069AA06AB31ADBB244
:10275000AB4205D20368DB68984730700136F3E777
:10276000FEF7A4FF281CF8BDF0B585B002AC00212F
:10277000A82200940623051CFFF7C2FFE778A37880
:1027800066793F021F432379607836021E4323781F
:102790000002184300B204F0E3F8286038B204F0F5
:1027A000DFF8686030B204F0DBF8A86005B0F0BD77
:1027B000F0B585B002AC0021882200940623051CE8
:1027C000FFF79EFFE778A37866793F021F432379DE
:1027D000607836021E4323780002184300B204F0EA
:1027E000BFF8E86038B204F0BBF8286130B204F0FA
:1027F000B7F8686105B0F0BDF0B585B002AC012155
:10280000A82200940623051CFFF77AFFE778A37837
:1028100066793F021F432379607836021E4323788E
:102820000002184300B204F09BF8A86138B204F02B
:1028300097F8E86130B204F093F8286205B0F0BD73
:1028400030B585B003AC0094002185220223051C1D
:10285000FFF756FF637822781B021343AB8405B061
:1028600030BD10B5041CFFF77FFF201CFFF7A0FF51
:10287000201CFFF7C1FF201CFFF7E2FF10BD1FB5B2
:102880006C460F3400940123FFF73AFF207804B020
:1028900010BD000038B521220D1C0021041CFFF7DB
:1028A000EEFFC72303402B43201C00212122FFF70A
:1028B00009FF102D0ED005D8002D09D0082D0DD1FF
:1028C000074B0AE0182D07D0202D07D1054B04E057
:1028D000054B02E0054B00E0054B636338BDC04685
:1028E00023DBF93D5A643B3F23DB793D5A643B3E91
:1028F00023DB793E38B525220D1C0021041CFFF78F
:10290000BEFF9F2303402B43201C00212522FFF7FD
:10291000D9FE202D0AD003D8002D0BD1064B08E09C
:10292000402D05D0602D05D1044B02E0044B00E0A2
:10293000044BA36338BDC0460AD7A33D8FC2F53E02
:102940000AD7233E0AD7A33E38B523220D1C012106
:10295000041CFFF794FFCF2303402B43201C0121CD
:102960002322FFF7AFFE102D05D0202D05D0002D1E
:1029700005D1034B02E0034B00E0034BE36338BD9A
:10298000295C0F3C295C8F3C295C8F3DF8B5C31D49
:10299000DB7F041C002B03D0806AFEF723FE42E09D
:1029A000071C303700203856261C251C2D362C35A8
:1029B000431C17D100203056012102F0E5FD002014
:1029C0002856012102F0E0FD00203056012102F0DE
:1029D00015FE00202856012102F010FE344800F0B8
:1029E000A7F820E0012102F0CFFD2E202056012182
:1029F00002F0CAFD00203056012102F0C5FD002082
:102A00002856012102F0C0FD00203056012102F0BD
:102A1000F5FD00202856012102F0F0FD0020385677
:102A2000012102F0EBFD201C00210F22FFF727FF00
:102A3000492801D0002039E0201C01210F22FFF796
:102A40001EFFD428F6D1201C002120226723FFF787
:102A500039FE201C00212422F023FFF733FE002141
:102A60000B1C201C2622FFF72DFE0F23201C01210A
:102A70002022FFF727FE00212422201CFFF7FFFE63
:102A800080235B420343DBB22422201C0021FFF79A
:102A900019FE201C0021FFF7FDFE201C0021FFF77E
:102AA00029FF201C0021FFF74FFF0120F8BDC04681
:102AB000602300200268064B012903D1D0588843C7
:102AC000011C02E0D15801200143D1507047C0469B
:102AD000540500000268064B0420002903D0D15899
:102AE0000843D05002E0D1588143D1507047C046CE
:102AF000540500000268064B0220002903D0D1587B
:102B00000843D05002E0D1588143D1507047C046AD
:102B10005405000070B50E1C012549082940041C0D
:102B2000FFF7D8FF311C2940201CFFF7E3FF70BDE1
:102B300010B50121041C406802F026FDA0680121A7
:102B400002F022FDE068002102F01EFD23686168AA
:102B5000A122D2009950A1680D4A201C9950E16829
:102B6000A222D20099500B4A8021C9059950002118
:102B7000FFF7D0FF201C0121FFF79CFF23680021F5
:102B80001A1CFC32D160A0220121D200995010BD44
:102B90000C050000240500000368074A99501A1C20
:102BA000FC32D1680029FAD00021D160A322D200E2
:102BB0009858C0B27047C0461C050000044B054A37
:102BC0001A6004225A6005229A600322DA60704774
:102BD00060230020003000400123817003707047A3
:102BE000F7B504230191C356051C072700240133C0
:102BF00003D11248FFF7D0FF1EE004202856002121
:102C0000012602F0FBFC019B311C0520B940194054
:102C1000285602F0F3FC04202856311C02F0EEFC8A
:102C2000062064002856E4B202F004FD002800D01B
:102C30003443013FE1D2201CFEBDC046602300208A
:102C4000F8B50378041C0F1C161C002B10D01B4D6C
:102C500001214156281CFEF702FD391C281CFEF7F5
:102C6000BBFA281C311CFEF7B7FA281CFEF71EFD24
:102C700003202056002102F0C1FC201C7D21FFF71B
:102C8000AFFF391C201CFFF7ABFF032020560121AA
:102C900002F0B4FC03202056002102F0AFFC201CFF
:102CA0007E21FFF79DFF311C201CFFF799FF0320B9
:102CB0002056012102F0A2FCF8BDC0467C22002073
:102CC00070B50578041C0E1C002D17D01F4D012176
:102CD0004156281CFEF7C3FC311C281CFEF77CFA69
:102CE000281CFEF7E3FC012161560122281CFEF797
:102CF000A5FC281CFEF751FAC0B225E00320291CD0
:102D0000205602F07BFC7D21201CFFF769FF311C5F
:102D1000201CFFF765FF03202056012102F06EFC06
:102D20000320291C205602F069FC7F21201CFFF79C
:102D300057FF291C201CFFF753FF051C03202056BA
:102D4000012102F05BFC281C70BDC0467C220020E3
:102D500038B50378041C0D1C002B03D03948FEF74E
:102D600041FC657002202056431C1AD0012102F05C
:102D70000BFC02200021205602F040FC642002F0EF
:102D8000FBF802200121205602F038FC642002F0FA
:102D9000F3F802202056002102F030FC642002F0FB
:102DA000EBF8FD21201CFFF78BFF274D2749281C3E
:102DB00002F096FCFD21201CFFF782FF1022011C6F
:102DC000281C02F0E7FC2249281C02F089FCFE21A5
:102DD000201CFFF775FF1022011C281C02F0DAFCF2
:102DE0001C49281C02F07CFCFF21201CFFF768FF17
:102DF0001022011C281C02F0CDFC201CFD21FFF735
:102E00005FFF50281CD1201CFE21FFF759FF5D28D1
:102E100016D1201CFF21FFF753FF832810D1201C5F
:102E20002A210022FFF70CFF201C7221FF22FFF74E
:102E300007FF201C41213022FFF702FF012000E0A4
:102E4000002038BD7C22002074230020C89C020092
:102E5000D79C0200E59C020038B50321041CFFF753
:102E60002FFF051E0AD00021201CFFF729FFFE239B
:102E7000021C1A40201C0021FFF7E2FE281C38BD6E
:102E800008B5024802F060FD08BDC046742300206A
:102E900038B50A4CA12301250022DB006560A5603E
:102EA000E2500223D1229A40A350C1229A40A3505B
:102EB0001120034901F0DCFF256038BD00100140FE
:102EC000A14E020008B5FFF7E3FF08BD374A384BB3
:102ED000D358384A934253D025D8374A934247D0E3
:102EE0000DD89D22120393425DD0344A93423CD0C8
:102EF0009E22D202934254D19620C00055E0304A1F
:102F0000934238D006D8E120EC228001920393420C
:102F10004BD046E02B4A93422FD08022120493429A
:102F20003FD1294841E0294A934231D00AD8284A62
:102F3000934228D0274A934227D0274A934230D140
:102F4000E1201EE0254A934225D005D88022D204F4
:102F5000934226D1224828E0224A93421ED0802262
:102F6000520593421DD120481FE0962040011CE0ED
:102F70009620800119E0962000E0E120C00114E0D5
:102F80009620000211E0962000E0E12040020CE0D3
:102F9000E120800209E0E120C00206E0E120000318
:102FA00003E0002001E0962000017047002000406F
:102FB0002405000000509D000050270000B01300C1
:102FC00000A04E0000F07500127A000000B0AF03C0
:102FD00000903A0100E0D70100F0EB0000705F07BD
:102FE00090D00300A4DFBE0E40420F00044B054A00
:102FF000D050054B1A78012A01D102221A7070476D
:103000001C0500000020004070230020014B00221E
:10301000DA607047FC200040014B00221A627047C2
:10302000FC20004008499022D2008858012330B586
:10303000184001D08B5004E08D580424254201D063
:103040008C50181C30BDC0460020004038B5074DDC
:10305000281C02F0DBFB064C201C02F0D7FB291CCD
:10306000221C044802F02AFC38BDC04690230020F0
:10307000D82300207423002070B50E4D2B78002B30
:1030800017D00D4C0D4802F003FC0123E360636090
:10309000A023DB000026E650022001F0F3FE084BDF
:1030A0000C21E258A023C132FF329200DB05D1503F
:1030B0002E7070BD7023002000200040742300207B
:1030C0000C05000008B5011C014802F01BFC08BDFE
:1030D00074230020F8B5041C59480678002E00D04F
:1030E000ACE0E02040001718A0255648ED05BF00D1
:1030F0007851E02040000F18BF007E51524D534ED2
:10310000AA51534AA9509622120294425DD029DC5A
:1031100096229201944252D00EDC962212019442E1
:1031200048D096225201944247D09622D20094422F
:1031300056D19E23DB0253E09622D201944240D026
:1031400006DCE122920194424AD1EC239B0347E042
:10315000E122D201944236D03E4A944240D18023AB
:103160001B043DE0E1229202944234D00DDC962211
:10317000520294422BD0E1225202944229D0E12201
:10318000120294422CD1344B2AE0E122D202944222
:1031900023D005DC314A944222D18023DB041FE096
:1031A000E122120394421AD02D4A944218D180236E
:1031B0005B0515E09D231B0312E02A4B10E02A4B10
:1031C0000EE02A4B0CE02A4B0AE02A4B08E02A4B7F
:1031D00006E02A4B04E02A4B02E02A4B00E02A4B8F
:1031E0002A4A8421AB50A0230422DB00EA50284B5A
:1031F0000022DA601A62C1239B00EA5801260A43C2
:10320000EA500F4B022023491E7001F031FE224B81
:10321000AE601B782E60002B10D1204B1B68002B5A
:103220000CD096239B019C4208DD1D4C2078002881
:1032300003D00134FFF746FFF8E7FEE7F8BDC046CC
:103240007023002001030000002000400C05000056
:1032500014050000127A000000F0EB0090D003008B
:1032600040420F0000B013000050270000A04E00A5
:1032700000F0750000509D0000903A0100E0D70179
:1032800000B0AF0300705F07A4DFBE0E240500008E
:10329000FC200040812E0200712300202C240020FD
:1032A000F29C020023DF704724DF704728DF70475D
:1032B00042DF704743DF704744DF704770B58901D4
:1032C000002815DAC0B20F230340083B124A9B08BE
:1032D0009B009B1803221040FF24C200DD69201CC4
:1032E000904085430C4094402A1C2243DA6112E04E
:1032F00082080A4B03249200D2182040C023A04029
:103300009B00FF24D558261C8640B5430C408440C2
:10331000281C2043D05070BD00ED00E000E100E02B
:10332000F8B5BE221B4B52009A58002A31D0A22376
:10333000A022D205DB00D358174A184D12681A4351
:10334000D2431343164A126813402B602B68002B9C
:1033500005D1BE230F4900225B00CA5019E00024AA
:10336000104B1B689C42F4DA0F4EE7002B68B859EB
:103370000122C34013420AD0F3195B689847002822
:1033800005D1BA592B68012191408B432B60013440
:10339000E6E7F8BD0060004030240020442400200F
:1033A0003824002040240020482400200D4B10B574
:1033B0001B68041C002B06D0FFF77EFF0120A040F5
:1033C000FFF776FF0DE0C30007481B18A220C000DE
:1033D000195006495A500123A3401C1C024A044BB1
:1033E000D45010BD2C24002000F001401405000032
:1033F0000405000008B5074B1A6801238340181C18
:10340000002A02D0FFF756FF03E0A1220249D200B2
:103410008B5008BD2C24002000F001400D4B10B54E
:103420001B68041C002B08D044B2201C0121FFF7AC
:103430003DFF201CFFF736FF0AE040B20121FFF7F5
:103440003DFF1F231C400123A3401C1C024B1C609A
:1034500010BDC0462C24002000E100E008B5084B58
:103460001B68002B03D040B2FFF71EFF06E01F23AE
:10347000184001238340181C024BD86708BDC04682
:103480002C24002004E100E008B5064B40B21B6884
:10349000002B03D0C9B2FFF709FF01E0FFF70EFFD1
:1034A00008BDC0462C24002038B5A022374BD205D9
:1034B000D3580124C340234267D1A1421DD0002923
:1034C00038D0052953D1A0238200DB05D218E02390
:1034D000DB00D5582E4984402940D150D158E043D3
:1034E000D1502C4B1A6802401A602B4B1A680240CC
:1034F0001A602A4B1A68104038E0A023DB058200CE
:10350000D218E023DB00D558214C81402C40D45008
:10351000D5588024A4022C43D4501E4B1A680A4369
:103520001A601D4B1A680A431A601C4B1A688A43BA
:103530001A601CE0A0238200DB05D218E023DB0028
:10354000D558134984402940D150D558C02189020B
:103550002943D1500F4BE0431A6822431A600E4BA7
:103560001A6802401A600D4B1C68204018600C4A13
:103570008021C12309069B00D1500620094901F092
:1035800077FC06200321FFF77FFF38BD14050000FC
:10359000FFFFFCFF382400203024002044240020BA
:1035A0000060004021330200F0B5294BA024E4055F
:1035B000E3580125C34087B02B4046D1254C05294F
:1035C0000BD1246885400594234CED432268039277
:1035D000224A16681A1CB44612E02368072B32D818
:1035E0001F4EDD00A851013375196A6023602AE07F
:1035F0001B4CD7003E5902970496864204D10132F3
:10360000059EB242F4DB16E0934212D0DF003E5139
:10361000029E0197A719019E7F68A4196760114C4B
:10362000674626682F402E402660039CBC462C40EF
:1036300003940133E3E7084A039F64461760074A8F
:103640001460044A1360FFF72FFF07B0F0BDC046B7
:1036500014050000402400203824002030240020DD
:103660004824002044240020BFF34F8F024A034B1C
:10367000DA60BFF34F8FFEE70400FA0500ED00E0CB
:1036800062DF704763DF704767DF70476ADF70474C
:103690006CDF70476FDF704773DF704774DF704710
:1036A00010DF704708B5FFF7DFFF08B5FFF7DCFF55
:1036B00008B50748FFF7E6FF002801D0FFF7D4FF61
:1036C000044B002B02D0012000E000BF08BDC04623
:1036D000F02400200000000010B5041C00F094FF4E
:1036E0003148211C00F06EFA208810380A2859D879
:1036F00002F028FC06204C3258585858583B4400D9
:103700002A4BA2881C1C1A80294B002B02D00020B7
:1037100000E000BF274B002B01D0FBF713FF264B27
:10372000002B3FD02488201CFFF7B8FF201CFFF798
:10373000B3FF37E0214B002B01D0FBF709FF01223B
:103740001A4B52421A8001F007F9002801D0FFF706
:103750008BFFFFF7ADFF25E0144B00211888184AB6
:10376000FFF798FF00281DD0F1E7A079002819D1B4
:103770000F4B002B16D000E000BF13E00E4B002BC8
:1037800010D00620205600E000BF0BE0208962899F
:10379000A1890C4BE4881C600B4B18600B4B196023
:1037A0000B4B1A6010BDC046222900202C2000209F
:1037B0000000000045F501000000000051F5010087
:1037C0009224002044290020502900204C29002068
:1037D0001C29002008B5024B186001F00FFB08BD42
:1037E0003424002008B5FFF73FFF08B5FFF73CFF82
:1037F000F0B5C34A012313608022D205D360C149CA
:103800005360C3B00320FFF74BFFBF4E31680B7806
:10381000002B00D13360BD4D286804F061FEBC4C24
:10382000BC4B2070186804F05BFE3368BA495A42FA
:1038300053412278C0B208709B00142A01D9142287
:10384000227022780026B24201D0961CF6B20025E2
:10385000A84201D0051DEDB20633F318EB18DBB218
:103860001F2B12D91F3BDBB200280AD0834205D997
:103870000125281A1B18DBB20D7002E0C01A08706F
:103880000023002A01D0D31A2370A44B00229A5699
:10389000143201DA14221A7000229A56042A01DD29
:1038A00004221A709E4B1A68132A01DC14221A6033
:1038B0001968A0229201914200DD1A6009ADFF2330
:1038C0002B70984AFD236B70281C00236B60AA6044
:1038D000AB7001F0F3F8002808D00123281CAB706E
:1038E00001F0ECF8002801D0FFF7BEFE00230093A2
:1038F00003208D4950228D4B00F018FD0028F3D194
:1039000001221023134305A80370804B22781B6803
:10391000191C0393FFF7BCFE011EE5D1844E854DB3
:103920001022854F32601823844A07AC2B60642331
:10393000136038600822201C04F022FC33687F49A1
:1039400023802B68201C63803B68A3800B68E38086
:10395000FFF79CFE0028C7D1704C00202056FFF7CF
:1039600093FE0028C0D1764C201C00F051F90028AD
:10397000BAD1744B1D68002D09D0734B281C1978DF
:10398000724B1A68724B1B78FFF77AFE71E0714B2D
:103990001E78002E2BD06E460423B37568466E4BFE
:1039A00012AC6E4910224A30238004F0E0FB6C4BCD
:1039B0000E941B880CAF5BBA63826A4B291C1B8870
:1039C00038225BBAA382684B16361B78A37518ACF5
:1039D0004C233B80201C1723BB8004F0D1FB012229
:1039E0002570A280A660E762201C291C3CE06F467F
:1039F0000623FB75638806AD2B80237826AC38221E
:103A0000AB70311C201C04F0BBFB404917370B681E
:103A1000311C1B78A7605A1E934134AF01225B0012
:103A2000A280381C38222370A67004F0A9FB364B04
:103A30001968002903D001233B83FD6102E00122C4
:103A40002283E561344B1A78002A07D00FAB9A80A5
:103A5000304A002012681880119231932F4B29931D
:103A6000002900D0391C26A800F01CFC002800D03A
:103A70003AE73E4C1422201C002104F081FB284B25
:103A800018883B4B1A7800239A4207D12F4B1B68AA
:103A90005A4253410233632800D864200025237022
:103AA0006560257204F010FA144B134A02F0B4FF5B
:103AB00002F062FB2F4B1E221A809A78208201208E
:103AC0000243E1210A400C210A4320218A439A70D3
:103AD0000722DA7010221A710521274A658201F047
:103AE000ABF9041EAC4200D0FEE6FFF7E1FD201C5E
:103AF00043B0F0BDC046C046000000000000E43FF7
:103B00002C240020A53602000425002028200020B7
:103B100020290020442000204829002040200020A7
:103B200024200020AB360200A0240020D936020059
:103B300044290020502900201C2900204C29002065
:103B4000222900208C240020882400209C2400208E
:103B50008924002098240020021500002F20002036
:103B600008250020902400202E200020F024002092
:103B70003F20002092240020D5370200C046C046D6
:103B800008B500F085F943425841C0B208BD66DF70
:103B90007047A0DF7047A2DF7047A4DF7047A6DF41
:103BA000704752DF704710B5041C04F0B3FA0028C8
:103BB00002D0303CE0B204E0201C04F045FD573850
:103BC000C0B210BD10B50B88112B05D0502B07D0FB
:103BD000102B19D18B8801E001235B42C38313E0D2
:103BE000CB88C4899C4208D1084B002B0CD0081C00
:103BF0002030C98BFBF762FE06E0C28A9A4203D1ED
:103C000088881321FFF7C3FF10BDC046BDF801002F
:103C10000123F0B55B42C3839B4B91B01C68071C2A
:103C2000002C25D00F25237800262D3B5A425341E6
:103C3000E4182078B04204D0FFF7B5FF0601013444
:103C4000F6B22078002804D0FFF7ADFF0643013418
:103C5000F6B209A82E54013DE5D2437B027B1B023C
:103C600013437B80391CFFF79CFF002804D006E13A
:103C700001230370854B43803B7802A98B707B88BE
:103C80003A1D01200B80FFF784FF041E00D0F7E0EF
:103C9000211C0322684604F073FA01221023134307
:103CA0006A4613700122102313436A4653709378B7
:103CB00006229343022209AD13436A469370211CE6
:103CC0001C22281C04F05CFA2B78022213431022D9
:103CD00013432B7000AB6B613B786A466C60EC6001
:103CE0002C61AC6193737B88211C0133938101A803
:103CF000032204F045FA0122102313436A4613718C
:103D0000002353719379062293430222134308221E
:103D1000934310229343012204AE13436A469371E6
:103D2000211C1422301C04F02BFA03AB049301AACB
:103D30001423726034817481B3813461B888BB1DEF
:103D4000291C321CFFF727FF041E00D098E0211C1D
:103D50001C22281C04F014FA2B7808221343042296
:103D600013432B703B786A466C60EC602C616C618D
:103D7000AC6193737B88211C0233938101A80322D9
:103D800004F0FEF96A460023137153790F2293431E
:103D9000012213430F221340102213436A4653712A
:103DA000937906229343022213430822934310225D
:103DB0009343012293436A469371211C1422301CC1
:103DC00004F0DEF903AB049301AA1423726034817A
:103DD0007481B38134613B1CB888291C321C0E33BA
:103DE000FFF7D9FE041E4BD1211C1C22281C04F015
:103DF000C7F92B7808221343042213432B703B7816
:103E00006A4693736C60EC602C616C61AC617B887A
:103E1000211C0333938101A8032204F0B1F96A46FF
:103E20000023137153790F229343012213430F226E
:103E30001340102213436A46537193790622934329
:103E400002221343082293431022934301229343F7
:103E50006A469371211C1422301C04F091F903ABC3
:103E6000336001AA01237260B381348174813461AB
:103E70003B1CB8881633291C321CFFF78CFE041C2F
:103E8000201C11B0F0BDC0460425002020220000F7
:103E9000F0B587B06F46063700903980142901D9F4
:103EA00014233B80114E0021F0883A1C009BFFF741
:103EB00074FE051E16D1F28B0D4B9A4212D002AC45
:103EC000291C1022201C04F05BF9F388A5802380B4
:103ED0000123A370009BA760E360F08B211CFFF718
:103EE0005EFE051C281C07B0F0BDC046222900203C
:103EF000FFFF000062DF704769DF70476DDF7047CA
:103F000054DF7047F0B587B00C9F061C387800244A
:103F10000391029200930190251C33889D4238DA68
:103F20007268A900511805A8042204F020F9694616
:103F300005A813310022FFF7E3FF002832D16846BD
:103F4000C37C02998B4220D1624262413B7852008D
:103F500059188A181F2A1ADC002C06D19A1C3A70AC
:103F600001330398009ADBB2D05400996C463A783A
:103F700013348A1805A8211CFFF7C2FF002811D1AD
:103F80003A7823780124D3183B700135C5E70C201B
:103F900008E00020844205D03B78019A013B00995B
:103FA0009B1A8B5407B0F0BDF7B5089E171C0096FE
:103FB0000222051C1C1CFFF7A5FF002806D1009655
:103FC000281C391C1022231CFFF79CFFFEBD00009B
:103FD000F0B500231370037887B0061C0D1C141C69
:103FE000002B03D1B378002B41D021E06F46163768
:103FF0001D23881C391C3B80FFF780FF002800D060
:1040000047E173780921002B04D03A889A4201D9FC
:104010003B8008212278531C23703B78581CA854FD
:104020002278501C2070A95422789B182370D9E75D
:1040300023780C201B2B00DD2BE16F461637381C34
:10404000FFF75AFF002800D023E1237839885A1C53
:1040500022700322EA5423785A1C22701922EA544F
:104060002378EA1811700233090A51702370B2885C
:10407000002A1ED0B168002900D109E123780C2064
:10408000991C8A181F2A00DD03E15A1C2270B2888D
:104090000132EA5423785A1C22700122EA54207813
:1040A000B2882818B16804F062F8B2882378D3186F
:1040B0002370F368002B12D01A7823780C201C2B65
:1040C00000DDE6E0591C21700221E9542378591CD7
:1040D00021700A21E9542378591C2170EA54338A4B
:1040E000002B03D1338B002B16D00AE0301C009438
:1040F0001030022106222B1CFFF756FF0028F1D0BA
:10410000C7E0301C00941830032107222B1CFFF756
:104110004BFF002800D0BCE0338C002B0AD0301CB1
:1041200000942030142115222B1CFFF73DFF00289E
:1041300000D0AEE0B36A002B41D022780C2002926E
:1041400006321F2A00D9A4E019880720052900D8C3
:104150009FE0514A8F18514ABFB2974200D898E069
:104160005A88052A00D894E04B4FBF18BFB2BC460E
:104170004A4FBC4500D88CE0494FB94204D0BA42FE
:1041800002D0914200D984E0029A02990132227051
:1041900005226A542278511C21701221A9542278D8
:1041A0001888A9180870000A4870901CC0B22070C6
:1041B00059882B1819700432090A59702270F76A4D
:1041C000002F28D03A792378911C981CC9B2411845
:1041D0000C201F295DDC591C03322170EA5423781E
:1041E0005A1C2270FF22EA5423783988EA180233D5
:1041F0001170DBB2090A51702370BA88002A0AD004
:10420000B9680720002944D0E81803F0B0FFBA8845
:104210002378D3182370371C343703973B7800205A
:10422000834236D0316B814232D00290039F3B787B
:10423000029FBB422AD9029A0C275743336BDF19DE
:104240003A7923780332591C2170EA5423785A1C96
:1042500022701622EA5420783A882B1802301A70FD
:10426000C0B2120A5A702070BA88002A09D0B96800
:1042700000290DD0281803F07AFFBA882378D318C4
:104280002370029B0133DBB20293CFE7002000E0F2
:10429000072007B0F0BDC0467FF3FFFF7DF30000AD
:1042A000FFFF0000F0B593B06D466E460023063563
:1042B00007360C1C2B70337098420BD08388002B70
:1042C00001D1072024E08368002BFAD01B785A071D
:1042D000F7D516E0071C002C03D0A388002BF0D1E3
:1042E00006E0221C29783378381CFFF703FE0FE024
:1042F000321C201C0AA9FFF76BFE0AAA0028F1D085
:1043000006E002A92A1CFFF763FE02AF0028E2D0F4
:1043100013B0F0BD50DF704723DF704710DF7047E8
:1043200008B5081C111CFFF760FA08BD38B5041C5D
:1043300007208D0713D1002911D0094801600949D0
:10434000201C0A80084A09491360094B049A1A6024
:10435000FFF7E4FF002802D11620FFF7DDFF38BD8C
:1043600018250020142500201025002021430200DC
:104370000C25002013B50B4B0B4C69461B880631EE
:1043800020680B80FFF7C6FF05280AD0002803D05D
:104390005F21064AFFF726FA054B20681B689847FD
:1043A000E9E713BD1425002018250020979D020081
:1043B0001025002008B5074B1B68002B07D0984735
:1043C000002806D07121044AFFF70CFA01E0FFF73C
:1043D000D1FF08BD0C250020979D020071DF7047BA
:1043E000A9DF7047AADF7047F0B5164A164C12785D
:1043F000164F9446164A002323703B701E32191C38
:10440000181C60451ADA141C1E3C657A6E0708D524
:10441000104E2468CD00AC55013175196A60C9B2DF
:1044200009E00D4E2468DD00AC55141C75192434C8
:1044300001336C60DBB201306832E2E7024A397066
:104440001370F0BDF0280020F1280020582500202E
:10445000B0250020702500202025002070B50D4AD1
:1044600001235B4213600C4B151C1C780023A342F4
:104470000EDA6822111C5943084E7118CE8F8642FD
:1044800004D1281C03F073FE002002E00133EEE7A4
:10449000052070BD88280020F0280020B0250020CD
:1044A00008B5064B00215A6E8A4201D0191C5031C2
:1044B000034B92B21888FFF793FF08BD88280020AD
:1044C0001C250020F8B580235B05071C18695021C6
:1044D00080B201F041FD1B4E83B2357804209D422D
:1044E0002ED2194C002D08D02068391C043013221C
:1044F00000F061FC002823D10EE0291C281C2A1C96
:1045000000F036FC114B211C1880114B187800F07C
:104510006DFC0028E8D013E00C4D4C21381C2A1CFF
:1045200000F026FC0B4928800143206800F03EFC87
:10453000002805D12368503323603378013333706A
:10454000F8BDC0461E25002060250020AE250020B5
:10455000642500200000DE45F8B580235B05071CBC
:104560001869502180B201F0F7FC1B4E83B23578F8
:1045700004209D422ED2194C002D08D02068391CF1
:104580000430072200F017FC002823D10EE0291C7C
:10459000281C2A1C00F0ECFB114B211C1880114B2D
:1045A000587800F023FC0028E8D013E00C4D1C21C3
:1045B000381C2A1C00F0DCFB0B49288001432068D2
:1045C00000F0F4FB002805D1236820332360337802
:1045D00001333370F8BDC046AC250020A82500206B
:1045E0005A250020642500200000DE4510B5054C4A
:1045F000207800F0F1FB002802D1607800F0ECFB9D
:1046000010BDC04664250020BA4BF7B51B78071CC7
:10461000002B03D1B84B08209B6898473B88172B89
:1046200064D005D8102B09D0142B00D130E18DE1D6
:10463000182B00D170E1522B4DD087E1BA88AF4CD6
:10464000AF4B201C1A8001235B424230B91D072268
:10465000236003F08CFD002363667B7BDD07ED0F99
:10466000EDB2002D0DD05B08062B04D8A54ADB0067
:10467000D156062916DDA04B03209B68984718E009
:104680000135A14B1B789D4213DAA04EEF00F319C0
:104690005868211C01304331062203F059FD0028DF
:1046A000EED1B95768225143994B201C591803F099
:1046B0005EFD2168013100D148E1FFF7F1FE8E4D2A
:1046C000002801D0AA6890476B68002B00D13DE11B
:1046D00001A80122D8E0894B1B68013317D1884B10
:1046E000002118880A1CFFF77BFE56E0BE79BD1D2D
:1046F000002E00D02AE1814C2368013353D1E88891
:10470000FFF7ACFE002802D0052803D045E0FFF7F4
:10471000C7FE42E07F4A1778062F01D904203FE008
:10472000291C3222201D03F022FDEB886822E3873A
:1047300027607B1C5743774975480B70C019211CB3
:10474000666603F014FDFFF74FFE6D4B311C1888B1
:10475000321CFFF745FE002822D1201CFFF7B2FED5
:1047600004280CD1644B5A68002AD7D0216801ABC9
:1047700018705970E18F181C5980904701E000288B
:104780000BD15D4B5B68002B00D1DFE001A800225C
:10479000027022684270E28FD6E0002800D1D5E096
:1047A000554B9B68D1E0A288FB889A4201D000203B
:1047B00046E0A1793A7A072319401A409142F6D18E
:1047C000E279797A1A400B409A42F0D1217ABA7A8A
:1047D0001F2319401A409142E9D1627AF97A1A40AE
:1047E0000B409A42E3D16289BB899A420CD1227F65
:1047F000BB7F9A4208D1201C391C0C3052080E3164
:1048000003F0A6FC46424641F307D0D5201C391CD4
:104810001E302031102203F09BFC0028C7D1231C3E
:104820002E331A783B1C30331B789A4208D1201C57
:10483000391C2F303131062203F08AFC43425841A3
:10484000C10700D582E0291C3222201D03F08FFC15
:10485000EB88201CE387FFF735FE274D04280AD19B
:104860006A68002A09D0216801AB18705970E18F7D
:10487000181C598002E0002801D0AA6890476B6894
:10488000002B63D001A8032221680270417082E7E7
:104890001A4C0C22201CB91D363003F068FCE08F46
:1048A000FFF7DCFD021E0DD1154B211C18880A31C3
:1048B000FFF794FD002802D00F4B9B689847FFF745
:1048C000EFFD11E0052811D10D4C002120880A1CB4
:1048D000FFF784FD002802D0074B9B689847002112
:1048E00020880A1CFFF77CFD021E2FD0024B101CF3
:1048F0009B682AE05C250020642500208828002091
:104900001C25002070250020F128002020250020F3
:10491000B0250020F0280020BB791A07120F1B09D0
:10492000012A02D1012B04D810E0022A0ED1002B5B
:104930000CD0074B5B68002B08D001A80222027044
:10494000044A11684170D28F42809847F7BDC04633
:1049500064250020882800204E4BF7B51A780823DC
:10496000002A00D194E04C4D6C462B68063401338C
:1049700020D014232380494B291C18885031221C35
:10498000FFF730FD031E00D082E0238828686B66A5
:10499000E8640323002800DA7AE0414A1278904262
:1049A00076DA682250433F4B291C181803F0DFFBCE
:1049B000FFF71AFD0020011C021C00F0D9F90027A6
:1049C0002080374E33789F420ADA68207843354B8F
:1049D0004C211818221C00F0CBF901372080F0E799
:1049E000314B22881B889A4207D10020011C021CEF
:1049F00000F0BEF90027208015E02C4B187800F05D
:104A0000EBF9031E44D12A4B071C187033789F42E0
:104A1000EBDA68207843234B1818FFF753FD002882
:104A200035D10137F2E733789F420BDA68237B43B5
:104A30001C481C214C30C018221C00F099F9013789
:104A40002080F0E71B4B22881B889A4208D1012363
:104A5000124A5B4213802B60EB6400236B6617E005
:104A6000124B587800F0B8F9031E11D1124B041CF8
:104A7000187033789C42EADA6823634309484C3063
:104A8000C018FFF769FD002801D10134F1E7031CCC
:104A9000181CFEBD5C250020882800201C25002055
:104AA000F0280020B0250020AE250020642500203D
:104AB0001E2500205A250020AC250020F0B5031C3F
:104AC000806897B0002800D1ECE08022520511697F
