:020000021000EC
:10C0000000000120D54C0200154D0200174D020022
:10C01000194D02001B4D02001D4D020000000000E2
:10C02000000000000000000000000000F9550200C0
:10C03000214D02000000000019560200254D0200AB
:10C04000274D0200274D02008D6D0200274D020092
:10C0500079E50100274D0200114E0200274D020034
:10C06000274D0200274D0200274D0200274D0200F8
:10C07000274D0200274D0200274D0200274D0200E8
:10C08000274D020001540200274D0200274D0200F7
:10C09000274D0200274D0200D9F90100274D02006B
:10C0A000274D0200274D0200274D0200274D0200B8
:10C0B000274D0200274D0200000000000000000094
:10C0C000274D0200274D0200274D0200274D020098
:10C0D000274D0200274D0200274D020000000000FE
:10C0E0000000000000000000000000000000000050
:10C0F0000000000000000000000000000000000040
:10C10000000000000000000000000000000000002F
:10C11000000000000000000000000000000000001F
:10C40000044B05481B1A062B02D9044B03B11847ED
:10C41000704700BF0F3A00200C3A002000000000D7
:10C4200005490648091A891001EBD171491002D05B
:10C43000034B03B1184770470C3A00200C3A002018
:10C440000000000010B5064C237843B9FFF7D8FF71
:10C45000044B13B10448AFF300800123237010BDD7
:10C460000C3A002000000000F4CE020008B5084B92
:10C470001BB108490848AFF300800848036813B9A6
:10C48000BDE80840CCE7064B002BF9D09847F7E70A
:10C4900000000000103A0020F4CE0200083A00200C
:10C4A00000000000154B002B08BF134B9D46A3F561
:10C4B000803A00218B460F461348144A121A0BF09B
:10C4C000CCFD0F4B002B00D098470E4B002B00D01B
:10C4D00098470020002104000D000D48002802D0DC
:10C4E0000C48AFF300800BF029FD200029000AF072
:10C4F00059FE0BF0FDFC00BF000008000000012009
:10C5000000000000000000000C3A0020E44400207D
:10C510000000000000000000704790F8B83013B130
:10C52000002280F8B8201846704790F8B93013B14F
:10C53000002280F8B9201846704790F8BA3013B13D
:10C54000002280F8BA2018467047F8B5037B0446ED
:10C55000002B00F09F8000F11005284604F0BAF986
:10C560000746284604F0B9F90646284604F0B8F90B
:10C5700023682760FB1AC4F8AC3063686660F31A5E
:10C58000C4F8B030A368A060C31AC4F8B43094F8FB
:10C590009C30092B0CBF0023013384F89C3094F8A5
:10C5A0009C3004EB83030021DE6458675F622646FB
:10C5B00008460B460A46776A3A44F76C04313B4416
:10C5C000776F2829384406F10406F4D10A2192FB3A
:10C5D000F1F2002A93FBF1F3C4F8A020B8BF524255
:10C5E000002BC4F8A430B8BF5B42642A90FBF1F082
:10C5F000C4F8A80007DD642B4FF0010384F8BB30BA
:10C6000007DD032305E0642B06DD012384F8BB303E
:10C610000223C4F8BC3002E0002384F8BB30302190
:10C62000284604F093F8D4F8AC3003F1C702B2F511
:10C63000C77F16D8D4F8B020C732B2F5C77F10D85C
:10C6400041061DD500F0200202F0FF0101231AB1BE
:10C6500084F8BA30002301E084F8BA1084F8B930C5
:10C660000EE0002BB8BF5B42C82B06DCD4F8B0301C
:10C67000002BB8BF5B42C82B02DD012384F8B83021
:10C68000C20644BF012384F8C030030744BF00231F
:10C6900084F8C030F8BD0000F0B500F11005044684
:10C6A0000F4687B04FF0FF31284604F017F80023FB
:10C6B000C4F8C47084F8B93084F8BA3084F8C03053
:10C6C00084F8BB30C4F8BC30A36063602360C4F856
:10C6D000B430C4F8B030C4F8AC3084F89C3004F105
:10C6E000200204F1480142F8043F8A424FF000065C
:10C6F00093621365F7D13846314608F0D3FC4149BF
:10C7000041480AF025F943F2390101A803F0E6FF98
:10C710009DF808302375039BA3619DF810302377A3
:10C720009DF8113063779DF81230A3779DF8133090
:10C73000E3779DF8143084F820309DF8153084F8A4
:10C740002130324801F0C6FD5321304801F061FE2E
:10C7500031462E4801F07AFD2C4801F0B5FE07461F
:10C7600028B12B4928480AF0F3F8267347E02846F9
:10C7700004F024F80126274923480AF0E9F839464D
:10C780002846267304F04EF878222E21284603F01E
:10C79000AFFF87222F21284603F0AAFF0822242179
:10C7A000284603F0A5FF03222521284603F0A0FF19
:10C7B00032462621284603F09BFFFF2227212846E8
:10C7C00003F096FF30222121284603F091FF4022FA
:10C7D0001D21284603F08CFF32462A21284603F00B
:10C7E00087FF64222221284603F082FF2321284666
:10C7F000FF2203F07DFF3021284603F0A7FF2046EB
:10C8000007B0F0BDA0AE0200F0410020C43B002004
:10C81000B5AE0200C0AE0200034B0449044800223A
:10C820001A700AF095B800BF2C3A0020D2AE020070
:10C83000F041002030B5202489B005462246002171
:10C8400068460BF00AFC2346094C0A486A4629460A
:10C8500002F0D2FB084920460AF06DF869462046EE
:10C860000AF076F8054B01221A7009B030BD00BFFE
:10C87000F0410020843C0020EBAE02002C3A002066
:10C8800008B501210D2008F00DFC01210D2008F054
:10C890002BFCFA2008F002FB00210D2008F024FCFC
:10C8A000FA2008F0FBFAF0E708B508B10AF050F8F2
:10C8B000FFF7E6FF08B5044904480AF049F81420D8
:10C8C000BDE8084008F0EABAF9AE0200F0410020E5
:10C8D00038B5084D044629460AF0C5FA294604F140
:10C8E0000C000AF0C0FA294604F118000AF0BBFA5D
:10C8F000204638BD1BCA02002DE9F043044687B02C
:10C90000884604F10C063E49174604F118050AF062
:10C91000AAFA3B4930460AF0A6FA394928460AF0F5
:10C92000A2FA374968460AF09EFA414668460AF07C
:10C930000DFB3B460022694603A80AF0B9FB03A998
:10C9400068460AF0D8FA03A80AF04BFA2C21684688
:10C950000AF0AAFB071E37DD07F101094A462C2120
:10C9600068460AF093FB3B4600228046694603A8CE
:10C970000AF09EFB03A920460AF0BDFA03A80AF0BC
:10C9800030FA43464A46694603A80AF091FB03A9D8
:10C9900030460AF0B0FA03A80AF023FA18492846EC
:10C9A0000AF0D4FAB8F1000F23DD029B08F101026E
:10C9B000694603A80AF07CFB03A928460AF09BFA03
:10C9C00003A80AF00EFA14E03B460022694603A8C9
:10C9D0000AF06EFB03A920460AF08DFA03A80AF0BC
:10C9E00000FA074930460AF0B1FA054928460AF02C
:10C9F000ADFA68460AF0F5F9204607B0BDE8F083C5
:10CA00001BCA02002DE9F043044687B00F4604F12B
:10CA10000C0637490AF027FA04F118053449304664
:10CA20000AF021FA324928460AF01DFA30496846D0
:10CA30000AF019FA394668460AF044FA2C21684689
:10CA40000AF032FB071E37DD07F101094A462C21A7
:10CA500068460AF01BFB3B4600228046694603A855
:10CA60000AF026FB03A920460AF045FA03A80AF0BB
:10CA7000B8F943464A46694603A80AF019FB03A9D8
:10CA800030460AF038FA03A80AF0ABF918492846EC
:10CA90000AF05CFAB8F1000F23DD029B08F10102F5
:10CAA000694603A80AF004FB03A928460AF023FA02
:10CAB00003A80AF096F914E03B460022694603A851
:10CAC0000AF0F6FA03A920460AF015FA03A80AF0BC
:10CAD00088F9074930460AF039FA054928460AF02C
:10CAE00035FA68460AF07DF9204607B0BDE8F083C4
:10CAF0001BCA020030B50D4685B0214904460AF034
:10CB0000B2F9204901A80AF0ECF91F4901A80AF07E
:10CB10004FFA29460AF040FA014620460AF0D2F9B7
:10CB200001A80AF05EF96B693BB3214601A80AF03F
:10CB3000D8F9154901A80AF03BFA05F10C010AF0F1
:10CB40002BFA014620460AF0BDF901A80AF049F97E
:10CB50002B6A93B1214601A80AF0C3F90A4901A83A
:10CB60000AF026FA05F118010AF016FA01462046E5
:10CB70000AF0A8F901A80AF034F9204605B030BD42
:10CB80001BCA0200303A00207CB1020010B588B008
:10CB900004466846FFF7AEFF1422002103A80BF0FD
:10CBA0005CFA029A002303A9684601320AF056FA99
:10CBB0000C2204F148000B4C0DEB020102F0A4F82A
:10CBC0000949204609F0B7FE6946204609F0ADFE46
:10CBD0000649204609F0BCFE68460AF002F908B092
:10CBE00010BD00BFF04100200CAF0200C8B1020030
:10CBF00070B5044616461D460AF064F9314604F144
:10CC00000C000AF05FF9294604F11800BDE87040F5
:10CC10000AF058B9002310B504468360C36003606E
:10CC200008200BF0D5F9606008B9FFF729FE022350
:10CC3000A360204610BD000073B505461F490430AF
:10CC40000AF011F905F11000FFF7E4FF002605F1E5
:10CC50002000FFF7DFFF68462E636E6341F2342148
:10CC600002F09AFC9DE8060005F1380002F07CFC19
:10CC700068464AF6012102F08FFC9DE8060005F1A6
:10CC8000480001F09BFE68464AF6022102F084FC4F
:10CC90009DE8060005F1800001F090FE68464AF626
:10CCA000032102F079FC9DE8060005F1B80001F0CF
:10CCB00085FE28462E7002B070BD00BF1BAF02007B
:10CCC00038B50D1E044601DC064906E0A90040689F
:10CCD0000CF040F8606018B903492068FFF7E4FDE4
:10CCE000A56038BD20AF020055AF020038B50D4633
:10CCF0008368C1689942044602D14900FFF7E0FF0A
:10CD0000E3686268591CE16042F8235038BDF8B509
:10CD1000044624200E4617460AF098FA3146054686
:10CD2000FAB2FFF7E9FD294604F11000FFF7DEFF34
:10CD3000F8BD000070B5094D0C4628460849164656
:10CD400009F006FE2146284609F002FE3246214639
:10CD50000448BDE87040FFF7DABF00BFF041002093
:10CD600081AF02002C3A00207FB5C369002B00F090
:10CD7000F280013B4269C36152F8234033B18169BB
:10CD8000042291FBF2F2934240F3DE80002C00F08B
:10CD9000E280214601A8FFF7ADFE7049704809F016
:10CDA000CAFD01A96E4809F0C0FD6E496C4809F042
:10CDB000CFFD01A80AF015F86B4901A80AF053F855
:10CDC00001A920460AF01CF9054601A80AF009F855
:10CDD000002D61D0654904F10C0501A80AF043F863
:10CDE00001A928460AF00CF9064601A809F0F9FF46
:10CDF0006EB104F1180101A80AF073F801A95C48AA
:10CE000000F0A4F901A809F0ECFF5A4998E05A494A
:10CE100001A80AF028F801A928460AF0F1F8064608
:10CE200001A809F0DEFF4EB104F1180101A80AF0D3
:10CE300058F801A94E4800F0A4F97CE04F4901A838
:10CE40000AF011F801A928460AF0DAF8064601A806
:10CE500009F0C7FF4EB104F1180101A80AF041F82A
:10CE600001A9434800F09DF965E0454901A809F092
:10CE7000FAFF01A928460AF0C3F8044601A809F000
:10CE8000B0FF002C67D0294601A80AF02AF801A9B2
:10CE9000374800F05BF94EE03A4901A809F0E3FF9A
:10CEA00001A920460AF0ACF8054601A809F099FF4F
:10CEB0004DB104F10C0101A80AF013F801A92C48A6
:10CEC00000F0A0F937E0304901A809F0CCFF01A932
:10CED00020460AF095F8054601A809F082FF75B3CF
:10CEE0002A490C3401A809F0BEFF01A920460AF026
:10CEF00087F8054601A809F074FF1DB11C4800F031
:10CF000060F928E01E4901A809F0ADFF01A92046FB
:10CF10000AF076F8054601A809F063FF1DB1144830
:10CF200000F052F917E0214601A809F0DAFF01A943
:10CF30000F4800F04CF901A809F053FF0BE0144929
:10CF4000074809F005FD06E00223103091FBF3F1DC
:10CF5000FFF7B6FE1AE704B070BD00BF90AF020045
:10CF6000F0410020C8B10200DAB00200B2B2020003
:10CF70009C3B0020A5AF0200ADAF0200B3AF0200A2
:10CF8000B8AF0200BCAF0200C3AF0200CAAF0200DC
:10CF9000D1AF0200F8B53E4C0022054601212046E3
:10CFA00002F0E0FB20463B4902F0A4FC20463A494F
:10CFB00002F0FDFC05F138073849204605F1480626
:10CFC00002F0F8FC384602F0B3FA3046102101F0C6
:10CFD0000CFD00223046112101F015FD12213046D2
:10CFE00001F005FD304605F1800601F023FD3046D5
:10CFF000022101F0FAFC00223046112101F003FD6C
:10D000000121304601F0F5FC3046B83501F012FD43
:10D010000221304601F035FE2846082101F0E5FCEA
:10D0200011222846002101F0EEFC28461C4901F09F
:10D03000EDFC1221284604F5147401F0D8FC2846B2
:10D0400001F0F8FC0621204601F048FB204601F0E3
:10D0500033FB3946204601F005FB204601F010FB6A
:10D060002046012101F061FBF4222046202101F03D
:10D0700059FB20461E2101F053FB0021204601F000
:10D0800081FB08490848BDE8F84009F061BC00BFD1
:10D09000843C00201BAF020035C8010019C8010004
:10D0A00035CD0100ECAF0200F0410020F0B50B4C93
:10D0B0002646074605460FCE0FC596E80F002034DA
:10D0C00085E80F000FCC07F120050FC594E80F008D
:10D0D00085E80F0032237B643846F0BDF8AF0200CC
:10D0E00010B50446013003F049FE237A834216BF8F
:10D0F0002072002080B200B210BD10B5044603F0CB
:10D1000005FA204603F046FA2046012103F01CFAF6
:10D110002046002103F020FA204610BD10B50A4633
:10D120000446002103F00CFA20460022012103F0FE
:10D1300007FA2046BDE8104003F00ABA0022027147
:10D1400002730275027780F8242070471FB5037DB3
:10D1500043B1046901A809F0C4FE01A9204600F00A
:10D160005BFD09E0037F53B1846901A809F0B9FEB2
:10D1700001A9204600F01EFC01A809F032FE04B00F
:10D1800010BD1FB5037F53B1846901A809F0A9FE42
:10D19000204601A900F0E9FB01A809F022FE04B035
:10D1A00010BD1FB5037F53B1846901A809F099FE32
:10D1B000204601A900F05CFC01A809F012FE04B0B1
:10D1C00010BD006A00F084BA006A00F085BA1FB58D
:10D1D000046A01A809F085FE01A9204600F080FA42
:10D1E00001A809F0FEFD04B010BD012381600373A6
:10D1F0007047037B13B18068FFF790BF006800F0B1
:10D200006BB800007FB5037904460D460BB3164991
:10D2100001A809F028FE01A9284609F0F1FE0646FA
:10D2200001A809F0DEFD1EB1206800F05AF819E0EF
:10D230000E4901A809F017FE284601A909F0E0FEF1
:10D24000054601A809F0CDFD65B1206800F04FF852
:10D2500008E0037B33B1084609F07BFFC1B22046EA
:10D26000FFF7C7FF04B070BD38B002003EB0020047
:10D270000B7910B50C4613B1086800F04CF894F81F
:10D28000243013B1206A00F063FB237F13B1A0693F
:10D2900000F040FC10BD38B5037904460D4613B1CB
:10D2A000006800F034F894F824301BB12946206A55
:10D2B00000F0A4FA237F2BB12946A069BDE83840CD
:10D2C00000F024BC38BD10B501210446C06807F049
:10D2D0000BFF0123237210BD002241600260FFF7A3
:10D2E000F2BF0021FA2280E80600FFF7ECBF002120
:10D2F0004FF47A7280E80600FFF7E5BF10B5002111
:10D300000446C06807F0F0FE0023237210BD0368D6
:10D31000194401607047037A10B504463BB190E8A8
:10D320000C009A4203D9FFF7E9FF0023236010BDE8
:10D3300090F8A03113B990F8A23123B1D0F8A431FC
:10D340000B44C0F8A431D0F8B4310B44C0F8B43168
:10D35000D0F89C311944C0F89C11704790F8BA215C
:10D3600022B1002380F8BA31012008E090F8BB31E7
:10D3700023B180F8BB214FF6FF7000E0184600B2E1
:10D38000704790F8FC3013B1002280F8FC2018465A
:10D39000704790F8FD3013B1002280F8FD20184648
:10D3A000704790F8FE3013B1002280F8FE20184636
:10D3B000704790F8FF302BB1002380F8FF30D0F891
:10D3C0000001704718467047F8B5037E2DED028BBB
:10D3D0000446002B00F06E8100F11C06304603F07D
:10D3E000B0FBD4ED077A2368FDEEE77A254617EE09
:10D3F000900AD4ED087AFDEEE77AC31A17EE901A78
:10D40000D4ED097AC4F890316368FDEEE77ACB1A5F
:10D41000C4F8943117EE902AA368D31AC4F898314F
:10D4200094F88031092B0CBF0023013384F880313C
:10D4300094F8803104EB830384E80700C3F8080103
:10D44000C3F83011C3ED567A00231A461946184620
:10D45000D5F808713844D5F8307104333944D5F81B
:10D460005871282B3A4405F10405F1D1D4ED0F7A17
:10D47000D4ED0D8A94ED0E8AFDEEE77A0A2390FB37
:10D48000F3F091FBF3F192FBF3F2C4F88401C4F8DA
:10D490008811C4F88C2100213922304617EE905AA9
:10D4A00003F05EFBD4F8903103F5BB530F3342F623
:10D4B000DE6293421FD8D4F8943103F5BB530F3387
:10D4C000934218D800F04C004C2814D17B497C487A
:10D4D00009F03EFA94F8A0313BB1D4F8A431962B70
:10D4E00003D9012384F8A13105E094F8A23113B9DE
:10D4F000012384F8A03194F8A03183B3D4F8A43187
:10D50000962B26D9B3F5FA7F11D294F8A131EBB15D
:10D51000012684F8FE606B49694809F019FA002376
:10D52000C4F8A43184F8A26184F8A0310EE00DD0D3
:10D530000022012384F8A02184F8A231C4F8A42198
:10D5400084F8FD3060495E4809F002FA002384F84F
:10D55000A1310A22D4F8A411594809F052FA94F8DA
:10D56000A2314BB1D4F8A431B3F5C87F82BF0023F8
:10D5700084F8A231C4F8A431D4F89C31B3F5FA7F11
:10D580003AD30023C4F89C31D4F89031002BB8BFB3
:10D590005B4244F62062934206DCD4F89431002BBF
:10D5A000B8BF5B42934202DD012384F8FC30D4F81B
:10D5B0008431002BB8BF5B4242F210729342D4F820
:10D5C00088310ADD002BB8BF5B4293424FF0010364
:10D5D00084F8FF300ADD032308E0002BB8BF5B426C
:10D5E000934206DD012384F8FF300223C4F80031A2
:10D5F00002E0002384F8FF3041F288339D4201DDD0
:10D60000012304E0314B9D4203DA4FF6FF73A4F887
:10D61000B831D4F8B431B3F5FA7F4BD3D4ED0A7AEC
:10D62000FDEEE77A002317EE901AD4ED0B7AC4F8DA
:10D63000B431FDEEE77A40F6B63017EE902AFDEEF3
:10D64000E87A17EE903A03F2DB5383420BD9FDEEF2
:10D65000C87A17EE903A03F2DB53834203D905F2FE
:10D66000DB55854226D8D4F8A831CB1A002BB8BF99
:10D670005B4240F2DC50834207DCD4F8AC31D31A71
:10D68000002BB8BF5B42834214DDB4F8B83118B246
:10D69000002804DD012384F8BA31002304E02BB113
:10D6A000002384F8BA31012384F8BB31C4F8A811EF
:10D6B000C4F8AC21BDEC028BF8BD00BF43B0020042
:10D6C000F041002049B0020058B0020078ECFFFFA2
:10D6D000012380F848307047002380F848307047B5
:10D6E0002DE9FF41002700F120060D4680F8487023
:10D6F0000446304602F0E2FE3249284609F08DFC2D
:10D70000804630B1012302930823019300932E4BEE
:10D710004CE02E49284609F080FC074630B1012331
:10D720000293082301930093294B32E029492846AC
:10D7300009F073FC804630B1012302930823019362
:10D740000093254B32E02549284609F066FC074640
:10D7500030B101230293082301930093204B18E07A
:10D760002049284609F059FC804630B10123029334
:10D770000823019300931C4B18E01C49284609F02C
:10D780004CFC074638B10123029308230193009310
:10D79000174B42460BE01749284609F03EFC50B1B2
:10D7A00001230293082301930093134B3A46114639
:10D7B000204602F076FE304604B0BDE8F04102F0AB
:10D7C00085BE00BFB9B00200A1B00200BEB0020029
:10D7D000A9B00200C3B00200B1B00200C8B002009C
:10D7E000E6B00200CFB00200DEB0020097B2020045
:10D7F00099B00200D6B0020016B10200436C194481
:10D80000416470477FB5044600F12005284602F0C8
:10D8100055FE94F83B30062B98BF1B194FF00102C0
:10D8200098BF93F8343002924FF0080201920092B0
:10D83000464A88BF002302EBC3030022114620465C
:10D8400002F02FFE94F83B30013BDBB284F83B3012
:10D850002BB9B421052009F0BAFA84F83B0094F8FA
:10D860003C3094F83D60013BDBB2B34284F83C307D
:10D870005AD894F9410094F9432094F9401012FBCE
:10D8800003F292FBF6F2821A94F9420010FB03F3C2
:10D8900093FBF6F3C91A002301930223009312B2FB
:10D8A00009B2204602F085FD94F83C30002B46D1A9
:10D8B00094F8403084F83E3094F8413084F83F309A
:10D8C000072009F079FA84F84000072009F074FA7B
:10D8D00094F8401084F84100C0B2C21ED2B2CB1EF0
:10D8E000DBB284F8432052B284F8423012FB02F2D9
:10D8F0005BB213FB0323092BE2DC94F83E30C91A18
:10D9000094F83F3084F84210C01A84F843000F2185
:10D91000032009F05CFA782184F83D00C0B209F0D8
:10D9200056FA84F83C000AE000230193022394F99C
:10D930003F2094F93E100093204602F03AFD28461D
:10D9400004B0BDE8704002F0C1BD00BFEEB00200FF
:10D9500090F8483010B5044633B1436C0A2B03D914
:10D96000FFF750FF0023636410BD012343700023C1
:10D970008370043009F0A6BA2DE9F04188461746B5
:10D98000002500F13C04204602F0ABFCAEB286421A
:10D9900005F101050BD242463146204602F080FCDB
:10D9A000204602F0A1FC384607F078FAEBE7BDE824
:10D9B000F0810000F8B50D4604462749284609F0D5
:10D9C0002CFB064678B100231A46194604F13C00A8
:10D9D00002F082FC192201462046FFF7CDFF00230A
:10D9E0006370A370F8BD1D49284609F016FB074671
:10D9F00018B133463246FF2121E01949284609F083
:10DA00000CFB064610B13B46FF2217E0154928469D
:10DA100009F003FB18B1FF23324631460FE01249EB
:10DA2000284609F0FAFA064608B1FF2305E00F4937
:10DA3000284609F0F2FA68B133461A46194604F14D
:10DA40003C0002F049FC192201462046BDE8F8409E
:10DA5000FFF792BFF8BD00BFB8AF0200A7B1020048
:10DA60001EB1020024B1020029B102002FB1020050
:10DA7000F0B5012385B0044683700E4601A81E4907
:10DA800009F0F1F901A92046FFF794FF01A809F078
:10DA9000A8F9002504F13C0002F074FCA56265625F
:10DAA00025621649304609F0B8FA074620B1FF232F
:10DAB000E362256365631CE01149304609F0ADFA65
:10DAC000054620B1FF23E7622363676311E00D4938
:10DAD000304609F0A2FA18B1E5622563FF2307E09A
:10DAE0000949304609F099FA18B1FF23E36223632C
:10DAF000636305B0F0BD00BF2FB10200A7B1020003
:10DB00001EB1020024B1020029B1020003691944C8
:10DB1000016170471FB543780446EBB10269436960
:10DB20009A4219D9C3780BB9012300E00023E370AE
:10DB3000E37823B9244901A809F095F903E0211DF0
:10DB400001A809F0CEF901A92046FFF733FF01A88B
:10DB500009F047F900232361A378002B32D0226912
:10DB6000A3699A422ED9E36AFF2B08BF226AE369B0
:10DB700004BFD2182262226B94F82010FF2A02BF41
:10DB8000626AD2186262626BFF2A02BFA26AD2186E
:10DB9000A262A26B1344A36394F8242094F8283063
:10DBA00004F13C0002F098FB0A2201462046FFF7F0
:10DBB000E3FEA36B013BE42B82BFE3695B42E361BD
:10DBC0000023236104B010BD2FB1020038B5084610
:10DBD00000211C46154609F033FA102200210BF0F3
:10DBE00013FAC0F307432B60C0F307232360049BA1
:10DBF000C0B2186038BD70B504461646C0681D46F0
:10DC000009F036FB3146206909F032FB294660698C
:10DC1000BDE8704009F02CBBF0B50D4689B0044654
:10DC20002A49284609F0F9F9064618B1B7EE000A64
:10DC3000002329E02649284609F0EFF9074628B1D4
:10DC4000B7EE000A33463246FF213AE02149284622
:10DC500009F0E3F9064620B1B7EE000A3B46FF2281
:10DC600013E01D49284609F0D8F928B1B7EE000A9B
:10DC7000FF233246314624E01849284609F0CDF901
:10DC800028B1B7EE000AFF231A46194619E0AB681F
:10DC9000062B19D1294605A809F023F904AB02AADD
:10DCA00005A90093204603ABFFF790FF05A809F0F4
:10DCB00098F89DF810309DF80C209DF80810B7EEEC
:10DCC000000A2046FFF797FF09B0F0BDB8AF020089
:10DCD000A7B102001EB1020024B1020029B1020066
:10DCE000F0B5114F0446061D85B00D463046394645
:10DCF00009F0B9F8656100253946257001A809F0D9
:10DD0000B2F801A9304609F0F6F801A809F069F85F
:10DD100001232046E56125626562A562E56225630F
:10DD2000A36105B0F0BD00BF1BCA0200026A0A442D
:10DD30000262826A0A448262026B0B4613440363E6
:10DD4000406AFFF7F5BA0000F0B50C460D1D93B020
:10DD500007466C49284609F0F9F8637C33B3236A17
:10DD6000632B23D96849694808F0F2FD0023E06974
:10DD70002362FEF7EAFBE069FEF7D7FB08B16449CE
:10DD80000AE0E069FEF7D9FB08B1624904E0E06906
:10DD9000FEF7C3FB50B1604909A809F064F809A96E
:10DDA000284609F0A8F809A809F01BF8237C002BE5
:10DDB00033D0A36A632B30D90023A362606AFFF7D4
:10DDC000CDFA0646606AFFF7FFFA606AFFF7E1FAEC
:10DDD00008B1524917E0606AFFF7E3FA08B1504909
:10DDE00011E0606AFFF7CDFAB8B9606AFFF7E1FAAF
:10DDF00008B14C4907E086B1012E01D14A4902E041
:10DE000001360AD1494909A809F02DF809A928467F
:10DE100009F071F809A808F0E4FFA37C002B31D0C9
:10DE2000236B632B2ED900232363E06AFFF758F995
:10DE3000022801461DD10A2203A809F075F83C49C1
:10DE400006A809F010F803A906A809F0A5F80146EC
:10DE500009A809F046F809A9284609F04CF809A8CC
:10DE600008F0BFFF06A808F0BCFF03A808F0B9FF40
:10DE700008E0012806D12F49244808F069FD6069AF
:10DE8000FEF718FD1F4909A808F0EDFF09A928466B
:10DE900009F0B6F8064609A808F0A3FF56BB09A882
:10DEA000FEF716FD2946684609F01BF8154903A838
:10DEB00008F0D9FF134906A808F0D5FF06AB03AA5E
:10DEC000694609A8FEF794FE06A808F08AFF03A891
:10DED00008F087FF684608F084FF09A96069FEF72B
:10DEE00055FE0FA808F07DFF0CA808F07AFF09A8DE
:10DEF00008F077FF2946384608F0F3FF384613B09C
:10DF0000F0BD00BF1BCA020035B10200F041002085
:10DF100040B102004BB1020056B1020062B10200F2
:10DF20005CB1020066B102006CB102006BB102008C
:10DF300075B102007EB102000B7BC1614374704772
:10DF400010B50446043008F04CFF204610BD000018
:10DF500038B5084CD4F840315BB1074D0748296803
:10DF6000FFF7E4FE29680648FFF795F90023C4F897
:10DF7000403138BD0090004084380020683B0020CC
:10DF80009C3B002008B508B108F0E2FC01210D20FF
:10DF900007F088F801210D2007F0A6F8FA2006F016
:10DFA0007DFF00210D2007F09FF8FA2006F076FF94
:10DFB000F0E7000070B5154E154C1649304608F0D4
:10DFC000C7FC012500230920134A6560C4F8043505
:10DFD000C4F80835C4F81005E560136812680F49E5
:10DFE000C3EB431303EB9203C4F840354FF4803383
:10DFF000C4F804330422C4F8005206F095FE2560EC
:10E0000030460749BDE8704008F0A2BCF04100204E
:10E010000090004088B102008438002051DF0100E8
:10E020009AB1020070B50E4C0E4E0F4D2046FEF711
:10E0300003FE32460D49204609F024FF21462846BA
:10E04000FFF74EFE32460A49284609F01BFF0948F1
:10E05000FFF774F80848BDE87040FFF727B800BF25
:10E060002C3A002080380020683B0020E1E10100CC
:10E0700041DF01009C3B0020203B002038B51E4CB6
:10E080004FF41651204608F031FD62B61B49204678
:10E0900008F05EFC0021102007F004F80121102098
:10E0A00007F022F8C82009F0D1F81C210546FEF738
:10E0B000F3FA134B13481D602946FFF73DFF01207B
:10E0C00009F0C4F80546FFF718F80F4B0F481D601C
:10E0D0002946FFF78AF80E49204608F039FC0D481A
:10E0E000FEF758FF4FF47A70FFF764FF20460A49A5
:10E0F000BDE8384008F02CBCF0410020ABB1020074
:10E10000283A0020683B00201C3B00209C3B00205C
:10E11000B7B102002C3A0020CBB102002DE9F0414A
:10E12000294C86B02546294808F00EFD002833D03A
:10E130002649254F684608F0C3FC684608F0E0FF12
:10E14000694603A808F0CDFE242009F07FF803A952
:10E150008046FEF757FC03A808F043FEE169A36977
:10E1600099420FD14E00002E01DC194906E0C9008A
:10E1700060690AF0EFFD606118B916493869FFF768
:10E1800001FFA661EB696A69591CE961684642F8BA
:10E19000238008F026FEC6E70F4903A8FFF7D4FD49
:10E1A00003A808F01EFE0D4903A8FFF761F803A8B5
:10E1B00008F017FE0448FEF7D7FD0A2006F06EFEB1
:10E1C00006B0BDE8F08100BF2C3A0020F0410020ED
:10E1D00020AF020055AF0200683B00209C3B0020AE
:10E1E00010B50446B83000F0C3FB04F1800000F025
:10E1F000BFFB04F1480000F0BBFB606A09F0F0FED1
:10E20000606909F0EDFE201D08F0EBFD204610BD11
:10E210002DE9F84380460D46174601EB02090C46EE
:10E220004C45A4EB050609D0D8F8003014F8011BC2
:10E230001B68404698470028F2D100E03E46304631
:10E24000BDE8F8837047203008F00DBC38B5437F37
:10E250000D462BB100F16804204608F012FC08B10D
:10E26000002038BD2046294608F0E0FB012038BDDB
:10E27000203008F0EABB203008F0FBBB2DE9F0416C
:10E280001E464FF47A7300258360104B45600446A8
:10E2900040F8203B1746884608F0BDFB04F16800B3
:10E2A00008F0B9FB0A4B9DF81820C4F8108053F809
:10E2B000222062769DF81C20676153F82230A376F5
:10E2C000267665772046BDE8F08100BFE8B1020000
:10E2D000C0C80200837E4FF0A04203F5E07330B562
:10E2E000012140F20C64C17642F82340437E03F5DD
:10E2F000E07342F8234003694FF0CC72C3F8242541
:10E300000622C3F80025827EC3F80825427EC3F8A2
:10E310000C25027E53B2D2B202F01F055C09A9405F
:10E3200060340F4D002B45F8241006DA0D4B02F037
:10E330000F02134440221A7606E003F1604303F50E
:10E340006143402283F80023037E01215AB203F087
:10E350001F0301FA03F35209014941F8223030BD8D
:10E3600000E100E0FCEC00E02DE9F84306468946B8
:10E3700098461546B2B100F12007384608F061FB17
:10E3800034690122C4F888952262C4F83475C4F84F
:10E3900038552260D4F84C313BB9D4F82431002BE5
:10E3A000F8D002E01046BDE8F8830023C4F84C31F1
:10E3B000D4F85C311BB9D4F82431002BF8D00023F9
:10E3C000C4F85C310122B8F1000F02D1D4F8243135
:10E3D00043B16261D4F80431002BFBD00023C4F8B0
:10E3E000043107E0E261D4F84831002BFBD0002370
:10E3F000C4F84831D4F8243113B10023C4F82431CF
:10E40000D4F83C053066C0B2BDE8F8830123FFF7BD
:10E41000ABBF10B5044680F8B010683008F011FBAF
:10E420000123637710BDF8B50569002343770446DF
:10E4300090F8B030C5F88835012668302E62C5F8EE
:10E4400044050F4608F00FFB2369C5F848059E6098
:10E45000D3F850211AB9D3F82421002AF8D0002289
:10E46000C3F85021D3F860211AB9D3F82421002A27
:10E47000F8D00022C3F86021012217B9D3F8241183
:10E4800041B15A61D3F80421002AFBD00022C3F81D
:10E49000042107E0DA61D3F84821002AFBD00022EA
:10E4A000C3F84821D3F8240168B10022C3F824211D
:10E4B000D3F8C404C3F8C404022804D0042814BF49
:10E4C00004200320F8BDF8BD0121FFF7ACBF43696C
:10E4D000D3F8642170B5044682B10022012500F111
:10E4E0002006C3F864210577304608F0AAFA63696C
:10E4F0004022C3F83465C3F838251D636369D3F837
:10E500006821D2B10025C3F8685104F168060123DF
:10E5100063772577304608F094FAD4F8B43003B125
:10E520009847657765693046C5F8446508F09BFAF9
:10E530006369C5F8480501225A636369D3F8042169
:10E540005AB10022C3F80421227F32B1D3F83C052E
:10E55000D4F8B830206603B198476369D3F8242112
:10E5600042B10022C3F82421D3F8D024C3F8D02428
:10E5700001225A6170BD00000148FFF7A8BF00BF2B
:10E58000C43B002007B51A2319228DE80C004FF078
:10E590004022042311460348FFF770FE03B05DF8E4
:10E5A00004FB00BFC43B002072DF704773DF70477D
:10E5B00074DF70470022C2770270704770B51D4645
:10E5C000C37F0E461146EA181D2A04460EDC184485
:10E5D0006A1CE254023000F8016C2A4609F017FD6B
:10E5E000E27F0232AB18E377012070BD002070BDDE
:10E5F0002DE9F041002688B007460D4601EBC20820
:10E600003446454516D0284600F0D1FF102802D0E8
:10E61000802809D00CE008AA631C02EB44042A8875
:10E6200024F8202CDCB203E00EB1002017E06E6865
:10E630000835E6E714B966B9012010E0630003F07D
:10E64000FE036A4603213846FFF7B8FF0028F2D1DF
:10E65000EBE71023324607213846FFF7AFFF08B03B
:10E66000BDE8F08113B50831044603C901228DE8E5
:10E67000030069462046FFF7BBFF02B010BD000053
:10E6800010B588B06946044620220A4801F046F9D0
:10E69000E27F13181D2BC4BFC2F11D02D0B2034686
:10E6A000CCBF082109216A462046FFF787FF08B042
:10E6B00010BD00BF843C002013B50446064801F09D
:10E6C0003CF902AA012302F8010D0A212046FFF7B6
:10E6D00075FF02B010BD00BF843C002007B502AA40
:10E6E000012302F8011D1946FFF768FF03B05DF82A
:10E6F00004FB08B50346FFF75DFF012183F82110F5
:10E70000202100229984F421D98483F820201E211D
:10E7100083F8222019859A855A851A63184608BD00
:10E72000018570478184C284704780F8211070474A
:10E7300070B5044686B00E4615460021182268467C
:10E7400009F08BFC94F820308DF800306846ADF865
:10E750001060ADF81250FFF729FF68B9084801F0C2
:10E760004BF9A28D95424FF0010094BF521B921AB3
:10E7700084F82200A28500E0002006B070BD00BF32
:10E78000843C002038B50C4D8185418595F8A33235
:10E79000C17F05F521720446FFF706FF50B92846F0
:10E7A000FA2101F0CDF8228DA18C2046BDE8384039
:10E7B000FFF7BEBF002038BD843C002008B5FFF73E
:10E7C000F7FE20B9034801F028F9012008BD002018
:10E7D00008BD00BF843C002038B50B88112B0446CF
:10E7E00012D01B2B23D0102B4ED18D7D012D4BD160
:10E7F000002380F82230254801F00FF929462348EC
:10E80000BDE8384001F015B98988204800F0D4FBF4
:10E81000012839D100211D4801F00BF994F821306D
:10E8200093B3618D2046BDE83840FFF7ABBF0B7A4C
:10E8300053BB80F822304FF4FA71144801F080F88D
:10E84000628D0AB1A28D2AB1E18C2046BDE8384024
:10E85000FFF76EBF0D4801F0E0F8236BA3B107F09E
:10E860006FFD01284FF0100002D109F0B1FB01E06B
:10E8700007F08AFF0023226B037203604372426039
:10E88000BDE8384007F0F4BF38BD00BF843C00202D
:10E8900010B5044607F054FD0128204603D1BDE819
:10E8A000104009F095BBBDE8104007F06DBF102285
:10E8B000028018224280002242608260704700007D
:10E8C000014800F032BB00BF5C3F0020F7B50F8865
:10E8D0008C88102F05460E4602D0112F19D038E033
:10E8E00021461D4800F068FB022832D16B6883B3D3
:10E8F0003846FFF7CDFF00226968026042720122AC
:10E90000027202AA034642F8084D41601068D860BE
:10E9100019E02146104800F04FFB0228074618D1A5
:10E92000AB68B3B11420FFF7B3FFA96841600022C0
:10E93000026042720772327A019200946A4603467C
:10E9400003CAD8601961184603B0BDE8F04007F06B
:10E950008FBF03B0F0BD00BF843C0020A2DF704732
:10E96000A3DF7047A4DF7047A5DF7047A6DF7047BD
:10E97000704710B5044608F06BFC204610BD00003F
:10E980004FF4007282810C4A1278427402740121A1
:10E990004FF00102002361F342020371437183606F
:10E9A000C381C3618382C38243830383827403620E
:10E9B00043628362C362704700B2020013B504462B
:10E9C0008DE806002346064943F8301B9DE8030006
:10E9D00083E805002046FFF7D3FF204602B010BDB4
:10E9E00010B20200012303717047417170478181A9
:10E9F0007047837C19B181816FF3000301E043F01C
:10EA000001038374704701744274704781627047D8
:10EA10000A1C837C416218BF012262F304138374D1
:10EA2000704701F11403024603CB10605160104699
:10EA30007047000070B5534B04461B68C36100F17A
:10EA4000300696B0304600F0C0FD637913F0320115
:10EA500001BF227C61F3030261F30712227413F0F9
:10EA60000C0101BF627C61F3030261F3071262745F
:10EA700013F030050DD04FF00003012262F3420382
:10EA80008DF80630404B1B788DF80430237C8DF8D0
:10EA900005301C2200210FA809F0DFFA63798DF8F8
:10EAA0003C3000230DB91A4600E001AAADF8083049
:10EAB00014924FF00003012262F34203A0688DF824
:10EAC0000A30237C8DF8083058B103784BB1109090
:10EAD0000AF0E3F902AB80B2ADF84400ADF84600AD
:10EAE0001393142200210DEB020009F0B6FA04F191
:10EAF00010030693A37C0596DB0754BFA38900236C
:10EB0000ADF81C30A389ADF8203005AA04F1140338
:10EB10000FA90020FFF722FF054668BBE37B2BB35C
:10EB20000346012262F342038DF80E30237CADF8D8
:10EB30000C008DF80C30154B1868049014222946EF
:10EB40000AA809F08AFA0223ADF83030ADF8343063
:10EB500004AB0A9303AB0B930DF1020204F10E0315
:10EB60000AA928460E93FFF7FBFE40B925792DB977
:10EB70002146074800F076FB284600E0002016B04A
:10EB800070BD00BF803C002000B2020002B2020053
:10EB9000D43C00200B88502B73B505460C4619D089
:10EBA000512B51D10A89838A9A424DD18B79022BFC
:10EBB00003D1436A0BB108319847A379012B43D1A4
:10EBC0002B6A002B40D004F10801284602B0BDE8B2
:10EBD00070401847866A3EB1CA88838A9A4203D138
:10EBE000CB890A8A1231B047E2882B8B9A422BD10B
:10EBF000EB6A33B1628AADF80420BDF804102846F0
:10EC00009847124800F0DCFEF0B107F099FB0128AC
:10EC10004FF0100002D109F0DBF901E007F0B4FD7C
:10EC20000022026042720A4941600122027202AA75
:10EC3000A18842F8041D03461068D860184602B047
:10EC4000BDE8704007F014BE02B070BD843C0020E7
:10EC5000E9FA010013B584890191A24228BF224636
:10EC600000230093818AADF800204FF6FF706A46BA
:10EC7000FFF778FE10B9BDF8000000E0184602B0BA
:10EC800010BD07B502AB042243F8041D1946FFF777
:10EC9000E1FF03B05DF804FB07B502AB022223F8E5
:10ECA000021D1946FFF7D6FF03B05DF804FB000014
:10ECB0007FB54379DB06064604D5124800F05FFEB7
:10ECC000044608B900241AE00223002502950D48E5
:10ECD000ADF808300DF10603039300F06EFE02AAB2
:10ECE000318BFFF741FE43F20143984202D1ADF868
:10ECF000065000E018B99DF8064004F001042046D3
:10ED000004B070BD843C0020F0B5437903F01003DB
:10ED100087B006460F4603F0FF05002B3AD08489E2
:10ED2000944228BF1446FFF7C3FF054668B38CB36F
:10ED30001A4800F042FE0146184800F04BF948B36B
:10ED4000142C23464FF0000128BF1423102202A8E0
:10ED5000ADF8063009F081F901238DF80A30B38A45
:10ED6000ADF808300D4805970DF10603049300F047
:10ED700024FE02A9FFF7FAFD28B9BDF80630E41A0F
:10ED8000A4B21F44D3E7002504E0224639463046AA
:10ED9000FFF760FF284607B0F0BD00BF843C0020AD
:10EDA00096DF704798DF704710B5044607F0C8FA41
:10EDB0000128204603D1BDE8104009F009B9BDE89B
:10EDC000104007F0E1BC002383827047806900F0A7
:10EDD0009CB87FB50D4604462B88C988382B39D09E
:10EDE000392B03D0362B40F08E8071E0AB7B012BAA
:10EDF00040F08980C369002B00F0858090F82010D6
:10EE00002A8A19B31046FFF7CFFF064600287AD0AA
:10EE10002A8A05F1120109F0FAF81820FFF7C4FF59
:10EE2000E269426000224272032202722A8A06606C
:10EE300003920194029601AA034603CAD86019619D
:10EE400010685861184607F013FD5CE005F11201E7
:10EE5000984758E011B104F1240052E000F1240673
:10EE60006A8A304601F0E3F9AB7B012BF3D0042B27
:10EE700049D1238EA28A112B01D8C3B100E01223FD
:10EE80000021019104218DF80410ADF80620298A93
:10EE90006A8AADF80A300A44E36AA069ADF808202E
:10EEA000039300F032F801A9FFF77CFF27E00293FB
:10EEB000039305238DF80430A069ADF806200123E3
:10EEC0008DF8053000F021F801A9FFF76BFF17E07E
:10EED0000029C0D100F124062A8A05F1120130462A
:10EEE00001F0A5F9238E5BB12B8A122B08D9A069FA
:10EEF00000F00BF8628EA18A92B2FFF751FF10B1B9
:10EF0000304601F0ACF904B070BD8088704710B590
:10EF10000446043001F046F9012323804FF6FF73C5
:10EF2000638000232375204610BD017D10B5044683
:10EF300021B9043001F03EF90123237510BD007D95
:10EF400070470B88322B10B5044611D0332B1BD0E1
:10EF5000302B26D1CB8833B98B8923B10A220C31CF
:10EF6000201D01F064F9201DBDE8104001F077B9C3
:10EF7000CB88002BF7D18A89002AF4D0013A02EB22
:10EF8000820252000C320AE0CB88002BEBD18A8936
:10EF9000002AE8D0013A02EB42025200083292B253
:10EFA000DDE710BD62DF704710B550220446002136
:10EFB00009F053F8204610BD00EB01114878704766
:10EFC00001EB021252F8021F016091889279818050
:10EFD00082717047042908B50CD800EB0110C06895
:10EFE00048B100236622194606F014FD003018BF10
:10EFF000012008BD002008BDF0B587B004AC16465E
:10F000001F460D4620464FF4285100F0C5FA8DE802
:10F01000C0004FF6FF7303930123029394E80C00A2
:10F020002946024800F05CF807B0F0BDD43C00204F
:10F0300073B50A88102A03460D46888804D0112A21
:10F040001BD0012A35D121E00201012199549C18DD
:10F05000AB7D637055F8082FC4F80220AA88E280BF
:10F06000AA7922720DF10701FFF79CFF9DF80710A6
:10F07000084606F0D3FBE0601BE0000100251C18E9
:10F080001D54E06806F076FDE56012E003EB001326
:10F09000DA6872B100261C462A7AF3B29A4206F167
:10F0A000010606D900231A461946E06806F0C0FB9F
:10F0B000F2E702B070BD95DF704738B50446F82519
:10F0C00000F5F87001F06EF82A460021204608F09D
:10F0D000C4FF2A460021601908F0BFFF204638BD52
:10F0E0007FB500F5F8758DE80C00BDF82830ADF857
:10F0F0000C300E46BDF82C30ADF80E3001212846FC
:10F1000001F058F8BDF824200899284601F061F86C
:10F1100003AA69463046FFF7CEFF30B94FF4FA71C3
:10F12000284601F05BF8044600E00024284601F080
:10F130004AF824EAE47080B204B070BD2DE9F84FBB
:10F140000E888F88A6F11003012B04460D4602D8C5
:10F150004FF0000801E0002310E022785FFA88F306
:10F160009A42F8D99B002344112E586803680CBFBB
:10F170001B685B68984708F10108EEE794F8542093
:10F1800003F10108DBB29A4207D91633294654F835
:10F190002300FFF7FFFC4346F0E7A6F136091FFA0C
:10F1A00089F94FF0010808FA09F808F00D0804F58C
:10F1B000A67B4FF0000A94F84C319A4517DA5BF8B9
:10F1C000040FFFF703FE87420ED1B9F1030F0BD8EE
:10F1D000B8F1000F08D0DBF80000AB89828A9A42B0
:10F1E00002D12946FFF7F5FD0AF1010AE3E7112EE6
:10F1F00026D1002594F8F820EBB29A4201D80026D7
:10F2000018E004EB8303D3F8FC008388BB4202D1EF
:10F2100003681B6898470135ECE704EB8505D5F8D2
:10F220005001FFF7D3FD874203D1D5F85001FFF716
:10F23000CAFD013694F84C31F5B2AB42EDD80FE07F
:10F24000352E0DD1AB895BB104F5F874EA89696993
:10F25000204600F0ECFF2046BDE8F84F00F0FFBF6D
:10F26000BDE8F88F90F85430282B1FBF5A1C163376
:10F2700080F8542040F8231014BF0120002070476C
:10F280000378132B9FBF5A1C027000EB8300416070
:10F2900094BF0120002070478ADF704710B50446F4
:10F2A00007F04EF80128204603D1BDE8104008F0D1
:10F2B0008FBEBDE8104007F067BA0000002330B5EC
:10F2C00001220370C3708380037383600361436111
:10F2D000054B427080220446827000F118050FCB66
:10F2E00085E80F00204630BD18B2020010B5044674
:10F2F00081841830FFF7D0FF28B9044800F07CFB68
:10F300000120207010BD002010BD00BF843C0020F3
:10F3100038B59DF81450C2B148780C78984204D1A1
:10F32000013C0231E4B206D111E0E0430244013471
:10F33000D2B22144EFE715B1AC4228BF2C46224699
:10F34000049808F064FE204638BD104638BD0846D3
:10F3500038BD37B50C7A9DF8185009318DE8280072
:10F360001346E208FFF7D4FF03B030BD2DE9F04F9C
:10F370008FB002AC80462046894684E80C0000F03D
:10F3800016F9C0B2102807D102238DF814300323D8
:10F390008DF81530274606E006238DF81430039FBC
:10F3A00007238DF815300026C508B2461F2200211C
:10F3B00006A808F052FE05AB4946F25CCDF800A065
:10F3C00006AB4046FFF7C5FF0DF1180B04465CB1D4
:10F3D0002A463946584608F00BFE08B9012007E0D6
:10F3E000641BAB44E4B2F2E70136022EDED12046C4
:10F3F0000FB0BDE8F08F00002DE9FF410B88112B05
:10F4000004460D4669D002D8102B59D087E01B2B3B
:10F4100075D01D2B40F0838090F9022091F90F30B8
:10F420009A427CDC037B01F1080613B9E378BBB98F
:10F4300025E04FF00008237B5FFA88F7BB420BD929
:10F44000A36803EBC7030CCB31462046FFF78EFFC2
:10F4500008F101080028EED0237BBB42E6D15EE034
:10F4600002230093FF2203AB31462046FFF771FFD2
:10F47000002854D0A288BDF80C309A424FD12820E1
:10F48000FFF70CFF30350746034656F8042B43F8C8
:10F49000042BAE42F9D12369002B40D01020FFF796
:10F4A000FDFE22694260002242720122027204AA19
:10F4B000076042F8047D03461068D86018462CE0C7
:10F4C0008B7D022B2BD100230370164800F0A5FA88
:10F4D0000121144800F0ADFA21E089881148FFF7B6
:10F4E0006BFD02281BD12178C9B90E4800F0A1FAA2
:10F4F0006378A3B1A18C2046FFF7F8FE0FE00B7AEA
:10F50000022B0CD1436953B11020FFF7C7FE002234
:10F510006169026041604272027207F0A9F904B0A9
:10F52000BDE8F081843C0020A0DF704770470000F8
:10F5300037B500F108050446284600F046F829468C
:10F540000DF106020120FFF7EFFF054628B9044B35
:10F5500004481C602146FFF793FE284603B030BDE7
:10F56000803C0020D43C002013B504468DE8060002
:10F570002346064943F8081B9DE8030083E805007D
:10F5800000232046A38002B010BD00BF30B20200AD
:10F5900063DF704764DF70470123837000230180BD
:10F5A0004360704700238370038041607047837815
:10F5B000012B06D0426832B9012B8CBF802000207D
:10F5C0007047102070478020704708B58378024646
:10F5D00053B9406840B1911CFFF7DAFF1020516821
:10F5E000BDE80840FFF7D6BF08BD52DF704710DF07
:10F5F000704775DF704776DF704777DF704778DFD9
:10F6000070477ADF70477CDF70477DDF70477FDFB0
:10F61000704786DF7047A9DF7047AADF704760DF59
:10F62000704761DF7047132005F09CBD37B50E4C65
:10F630000E4DD4F8000300234FF0FF32194606F0B8
:10F64000E9F90028F5D001A8FFF7CFFF10B1052890
:10F65000F9D1EEE70198831E012BF4D8002DF2D0EA
:10F6600005F00AFDEFE700BF843C0020795002005E
:10F6700010B5044606F064FE0128204603D1BDE81B
:10F68000104008F0A5BCBDE8104007F07DB810B5EB
:10F69000044606F055FE0128204603D1BDE810407F
:10F6A00008F09EBCBDE8104007F07DB870B5044678
:10F6B000FFF77AFC04F15000FFF7FFFC04F514702B
:10F6C000FFF717F804F52170FEF774FF04F52970B1
:10F6D000FFF7F4FD04F53370FFF7E9F804F5367031
:10F6E000FFF715FC04F5437000F0B8FC012300217E
:10F6F00084F8F03284F808334FF6FF76102518238B
:10F70000A4F8F43284F8F112C4F8FC12C4F800131F
:10F71000C4F8041384F8F812A4F8546384F8561358
:10F72000A4F8F252A4F8F612C4F85813C4F85C1303
:10F73000502204F2663008F090FC03224FF00103DF
:10F7400062F3061384F86033072384F8613384F886
:10F750006253A4F8786384F8632384F86423204612
:10F7600070BD000070B5584C80F8F01290B005469E
:10F7700080F8F12220680590002105A8FFF737FFE7
:10F78000002840F09E80142201460BA808F065FC7A
:10F790000A23ADF82C309DF8383043F001038DF882
:10F7A00038304FF430630F9395F8F0328DF83430E1
:10F7B00095F8F1328DF8363010A9002B434B41F803
:10F7C000283D14BF042200220BA88DF83520FFF736
:10F7D00026FF002875D1C8230A90ADF82A30B5F865
:10F7E000F232ADF8243009A8B5F8F432ADF826307D
:10F7F000FFF707FF002864D110A8237900F8303DF7
:10F800000B223349FFF7FFFE0446002858D1FFF7CB
:10F81000F6FE0446002853D1FFF7EFFE002850D132
:10F8200005F5437000F03CFC95F8F1321BB105F58D
:10F830003370FFF745F803220021012005F0D0FFC7
:10F84000C5F8FC0208B904203BE0002407AB0326FE
:10F8500001934FF4C06223461E490394029400961C
:10F860001D4806F0FDF932462146012005F0B8FF9B
:10F87000C5F800030028E6D008AB0193C822234650
:10F880001649039402940096154806F0E9F9154BC1
:10F89000C02283F816234FF480021A60124B0093A3
:10F8A0004FF4807123460122204606F02FFEC5F852
:10F8B00004030E4801F075FA0D490C4801F097FA5F
:10F8C000204610B070BD00BF3CB20200803800205E
:10F8D0005CB2020068B2020021FE01006FB20200B9
:10F8E0002DF6010000E100E027F601005C40002059
:10F8F00076B2020037B5084B02AC1B7904F8043D20
:10F9000008460D4609F0C9FA294682B22046FFF79B
:10F910007AFE03B030BD00BF3CB2020007B5084616
:10F9200002A921F8022DFFF770FE10B99DF806001C
:10F9300000E0002003B05DF804FB90F9F802704786
:10F9400073B50446D0F804030E4606F011FF0023F9
:10F950000546B6024FF47A720093B6FBF2F2042128
:10F96000D4F8040306F0F0FD3DB900952B462A4675
:10F970000321D4F8040306F0E7FD02B070BDB0F82F
:10F9800054034FF6FF73C01A18BF01207047B0F838
:10F99000540308B54FF6FF73984206D01321FFF7C2
:10F9A0002AFEB0FA80F0400908BD012008BDC0F869
:10F9B00058137047C0F85C137047B0F85403704791
:10F9C00090F85603704710B5B1F854230446FFF77A
:10F9D000F7FA204610BD000010B5064C0021D4F8FF
:10F9E000000305F0F3FFD4F8FC020021BDE810404D
:10F9F00005F0ECBF843C002090F8083313B553B1F8
:10FA0000D0F8044306F042FA002302460093012195
:10FA1000204606F099FD02B010BD07B50023009303
:10FA20001A460321D0F8040306F08EFD03B05DF8FA
:10FA300004FB90F8083313B1132005F055BB704751
:10FA400010B58AB004460A4603A8084909F0C6F969
:10FA50000023009304F26632502303A9044801F006
:10FA60000DFA003018BF01200AB010BD85B20200A7
:10FA70005C40002070B5B0F878234FF6FF739A42CF
:10FA80008AB0054629D00AAE002126F81E1D0323A0
:10FA90003246B0F85403FFF7C0FDBDF80A00FFF787
:10FAA000E7FD0446C8B1014603233246B5F85403C6
:10FAB000FFF7B3FD70B9B5F87823094903A809F039
:10FAC0008DF970220092BDF80A300648224603A93B
:10FAD00001F0FEF92046FFF7DAFD0AB070BD00BF65
:10FAE00085B202005C4000200148FFF7C3BF00BFA1
:10FAF000843C002037B50C4690F8561361B9014696
:10FB00006846FFF760FF009B2360BDF80430A380C8
:10FB10009DF80630A37119E000F2AE310D68256042
:10FB20008D88A5808D79A57100F29E3454F8045B10
:10FB300042F8045B8C42F9D100F2663200F2823066
:10FB400052F8041B43F8041B8242F9D103B030BDC4
:10FB500010B5054C2046FFF7A9FD2046034A04498D
:10FB6000BDE8104008F08EB9843C002080380020A9
:10FB7000D9FE010070B58EB00A460646214907A895
:10FB800009F02CF9012207A901A801F0EDF901A85B
:10FB900001F0FCF908B9002424E001A801F01DFAE5
:10FBA000B0F17004F7D02046FFF762FD054600284B
:10FBB000F1D0702101A801F02AFA2246294601A8B5
:10FBC00001F052FA50B1A2B203232946B6F8540309
:10FBD000FFF721FDB0FA80F4640900E004462846EE
:10FBE000FFF755FD01A801F0D6F934B923462246A6
:10FBF0002146B6F85403FFF70EFD01A801F0D8F92D
:10FC00000EB070BD85B202002DE9F04104460D46EC
:10FC100088B08F88FFF70CFA294604F51470FEF7B8
:10FC2000DBFD04F529702946FFF7E6FBB4F8540321
:10FC30002B88874206D0102B02D01B2B40F0C480AB
:10FC4000132B01E0132B6AD005D8112B40D03BD8E1
:10FC5000102B13D0B8E0192B00F09C8002D8142B85
:10FC60007DD0B1E01A2B00F08C80522B40F0AC809C
:10FC700000231A461946FFF7CEFCA5E0AB7D012B09
:10FC800040F0A2802B8BB4F8F222A888A4F8540389
:10FC90009A42A4F8F63200F2B780B4F8F422934204
:10FCA00000F2B280D4F85833002B00F08D80102081
:10FCB000FFF7DEFC0022D4F85813026042720122E2
:10FCC00003464160027275E02B89A4F8F6327BE0AE
:10FCD00094F8563313B12046FFF7CCFED4F85C33CA
:10FCE000BBB11420FFF7C4FC00220260D4F85C13FF
:10FCF0004272022202724160B4F8542300922A7ABE
:10FD000001926A46034603CAD8601961184606F094
:10FD1000AFFD4FF6FF73A4F85433002337E004F22D
:10FD2000663650220021304608F097F94FF6FF73EF
:10FD3000A4F8783320220021684608F08EF904F2F6
:10FD40008233049304F29E33059304F558726B4694
:10FD50000021A8880096FFF75AFCA8B35AE0298A28
:10FD60002046FFF76DFE0346A8882BB1002304F25E
:10FD70009E3204F2663101E01A461946FFF749FC4B
:10FD800022E0B4F878132046FFF7F4FE012384F84C
:10FD9000563319E02E7ABEB94FF0010884F8568325
:10FDA0001020FFF765FC1D4A06600346426046725C
:10FDB00080F8088008AAB4F8541342F8201D10688F
:10FDC000D860184606F054FD94F8F13263B1B4F8E7
:10FDD0005433BB4203D14FF6FF739F4204D12946EF
:10FDE00004F53370FEF772FD04F536763046FFF702
:10FDF000A6F818B129463046FFF7A3F8294604F1C2
:10FE00005000FFF79BF905E00021FFF7F2FB002807
:10FE10003FF448AF08B0BDE8F08100BFCDFE01005F
:10FE200030B50E4D97B000234FF0FF321946D5F88C
:10FE3000FC0205F0EFFD0028F5D054240DF102017D
:10FE400001A8ADF80240FFF7ECFB20B901A9034877
:10FE5000FFF7DAFEF2E70528E5D0EFE7843C002063
:10FE600010B596B00446B0F87823174907A808F0F3
:10FE7000B5FF202200210EA808F0EFF820230EAADB
:10FE8000B4F854132046FFF7B7F8022207A901A8D7
:10FE900001F06AF801A801F079F880B1502204F26B
:10FEA000663101A801F046F89DF8383023B12022D0
:10FEB0000EA901A801F03EF801A801F06CF801A814
:10FEC00001F076F816B010BD85B202000148FFF7C8
:10FED000C7BF00BF843C002010B5054BC0F80C33F1
:10FEE000044600F54770FEF743FD204610BD00BFF5
:10FEF00098B3020044DF704745DF704711DF704759
:10FF000013DF7047A8DF7047AADF704770B586B06F
:10FF10000E8805460C46014602A8FEF782FDBDF894
:10FF20000830B34240F08680A379043B022B40F2B4
:10FF300081801022002102A808F08FF802232846B1
:10FF40008DF80830FEF7B4FE50B940F2FD133A4880
:10FF5000ADF80C30FFF731FD02A9FFF7D3FF69E0E0
:10FF600000263548ADF80C60FFF727FD02A9FFF722
:10FF7000C9FF257B012D5DD13E22314606AC2F48BD
:10FF800008F06BF8082324F8123D2B48FFF715FD05
:10FF900022462B462A492B4CFFF7B6FF2749264815
:10FFA000294B2A4AFFF7A6FD24484FF6FF7110F8A7
:10FFB000012B82EA112383EA13139AB243EA012345
:10FFC00083EA023383EA4213A04299B2EFD11B4B7A
:10FFD00019489987FFF7DBFC1D48FEF7EFFBFF2070
:10FFE000FFF78AFFB120FFF785FF18BBFFF786FFF9
:10FFF00000BB184A136823F001031360164B4FF43B
:020000022000DC
:100000008002C3F880210124420900F01F01203240
:10001000013004FA01F1272843F82210F4D14FF0FF
:1000200010235869FFF76CFF20B980F314885869D2
:1000300000F0B6F806B070BD843C0020807F002040
:10004000B47F0020BC7F0020987F0020877F0020A5
:10005000D43E002010E000E000E100E073B505466A
:100060000C496846FFF79EFA2E469DE80600284692
:10007000FFF77AFA084B46F8103B68460749FFF746
:1000800091FA9DE806003046FEF798FC284602B03B
:1000900070BD00BF70B3020098B3020080B30200CD
:1000A00030B59FB00446FFF743FA00284FD110AD9A
:1000B00029492846FFF776FA95E8060002A8FEF7D8
:1000C0007DFC02A8FEF78EFC042102A8FEF78DFC41
:1000D00002A81421FEF78BFC02A8FEF7ABFC88BB3C
:1000E000103418212046FEF780FC17212046FEF729
:1000F0007EFC20461949FEF78BFC2046FEF79AFC51
:1001000000BB17496846FFF74DFA9DE806002846F0
:10011000FEF754FC02A8FEF765FC02212846FEF714
:1001200064FC02212846FEF764FC2846FEF782FCA8
:10013000044618B901212846FEF7AEFD2846FEF711
:1001400017FC00E0044602A8FEF712FC00E004469B
:1001500020461FB030BD00BFA4B302000DFF010058
:10016000B4B30200F0B50346186880F308885868F5
:10017000FF2464B2EFF30585002D01D1A6460047A8
:100180002546064621273FBAF0B400240025002664
:100190000027F0B4F92040B2004700BFF0BD00BF17
:1001A000FFF7E0BF01220270002242608260C2813C
:1001B0008281704710B50446217019B90A2005F0F4
:1001C0002DFB606010BD037813B9406805F0D2BC08
:1001D0007047002381608281C381704738B50378FE
:1001E00005460C466BB90023A4024FF47A721946F7
:1001F000B4FBF2F2686805F00DFC68B94FF0FF340B
:100200000CE003220021012005F0EAFA68600028D2
:10021000E9D14FF0FF3038BDEC89A4B22B7823B17F
:10022000686805F0A7FC00236B60204638BD38B530
:1002300085899542044628BF154619B12A4680682B
:1002400007F0E5FEA3682B44A360A3895B1BA38191
:10025000E38915FA83F39BB2E381284638BD4068F1
:1002600020B100231A46194605F0E2BA704730B5AE
:1002700045889DF80C408D4211D9057B45B112FB94
:1002800005F215FB03F315FB04F4120A1B0A240AFA
:10029000856801EB410168186B544270847030BD71
:1002A00043888B4230B516D9057BC2F30744C2F3AD
:1002B0000723D2B245B16C436B436A43C4F30724AE
:1002C000C3F30723C2F30722856801EB41016818D5
:1002D0006B544470827030BD43EA022343EA01400C
:1002E00070474088704700008368F7B50546002BCB
:1002F00042D004F0C7FD2B69C01A3128F9D96B7BB5
:10030000A88869781D4E1E4F012202FA03F3AA68DD
:10031000541C1278D2B28DF80620DAB28DF807207C
:100320009DF806204FEA02623360A1F101010DD071
:100330004FEA420200BF00BF00D23B6000BF00BFD7
:1003400000BF3B6000BF00BF00BFEDE74FEA4202C5
:1003500000D23B6022784FF008013B604FEA026216
:1003600004F10104A0F10100DED100BF00BF8DF84F
:10037000062004F087FD286103B0F0BD0805005099
:100380000C05005073B50024054626466B88A1B2C3
:100390008B4204F1010406D9002300961A46284630
:1003A000FFF765FFF2E7284602B0BDE87040FFF7AF
:1003B0009BBF2DE9F3471E460368BDF92880DB6823
:1003C000BDF82C900C460546174698472644B44283
:1003D0002A680BDACDF80090D2F818A021464346DF
:1003E0003A4628460134D04724B2F0E7536A2846FB
:1003F00002B0BDE8F04718472DE9F04F89B09A46A2
:10040000BDF94C300393BDF8503004930368029259
:10041000DB680191BDF948900026054698470823FE
:1004200000963446079309F1070292FBF3FB009A0A
:10043000029B03991344BDF9002091429BB229DD30
:100440000AEB06021BB24FF00008059206931FFA52
:1004500088F10BB24B4518DA4A0703BF079A93FBA2
:10046000F2F3059A64000CBFD45CE4B2230609D50C
:10047000019B069A19442B681B6909B21F4628463E
:10048000049BB84708F10108E1E7009B01330093A2
:100490005E44CCE72B685B6A284609B0BDE8F04FA4
:1004A000184770B4BDF90C40BDF91050BDF8146088
:1004B00005960495039470BCFFF79EBF831E00222F
:1004C0000E3023F8022F8342FBD1704738B5044623
:1004D000017C0D48FDF79DFF00210B48FDF7B6FE9E
:1004E000A51E0E3435F8021F0748C9B2FDF7AEFE4F
:1004F00029880548090AFDF7A9FEA542F2D102485C
:10050000BDE83840FDF7E0BFC43B00207047000065
:1005100070B50A4C0E4620465A211546FDF779FF64
:1005200031462046FDF792FE29462046FDF78EFE15
:100530002046BDE87040FDF7C7BF00BFC43B0020A8
:100540000431C9B2FFF7E4BF0A460321FFF7E0BF59
:1005500001220C21FFF7DCBF0A460121FFF7D8BFBB
:1005600038B50B4C0D4620465A21FDF752FF29465F
:100570002046FDF76BFE2046FDF7A6FF01225A211B
:100580002046FDF743FF2046FDF772FEC0B238BD9E
:10059000C43B002010B504462548FDF79BFE002112
:1005A0002046FFF7DDFF204600220121FFF7B0FFC4
:1005B000204600220221FFF7ABFF20460122042142
:1005C000FFF7A6FF204600220521FFF7A1FF2046E6
:1005D00000220D21FFF79CFF204600220E21FFF78D
:1005E00097FF204600220F21FFF792FF20460022AE
:1005F0001021FFF78DFF642220461321FFF788FFAB
:100600001A212046FFF7ACFF1A2100F07F02204696
:10061000FFF77EFF1D212046FFF7A2FF40F02002DA
:10062000D2B220461D21FFF773FF012010BD00BF8D
:10063000C43B002070472DE9F04706460F46904620
:100640009946072500244FF0010A0021304604F0A6
:100650004BFD0AFA05F101EA0901404604F044FDA8
:1006600030460121640004F03FFD3846E4B204F056
:100670004DFD08B144F0010415F1FF35E5D22046E7
:10068000BDE8F08738B50C460546282200212046F3
:1006900007F0E3FC0B220A49204608F01BFC00236C
:1006A000E3720122E260AA686362064BA361064B13
:1006B0002261E3610622054B6261236238BD00BFFF
:1006C000B8AE02000AE81CC30AE81C43A3AF203DF1
:1006D00010B5044606F0BCFD204610BD034A02607A
:1006E000002202730122816042747047CCB3020081
:1006F00070B50E46417C0446154681B1532112481F
:10070000FDF787FE31461048FDF7A0FD29460E484B
:10071000FDF79CFD0C48BDE87040FDF7D5BE007CA0
:1007200004F0E2FC3346A27BE17B607BFFF783FFB2
:10073000E17BA27B607B2B46FFF77DFF207C0121C4
:10074000BDE8704004F0D0BCC43B002038B50D4675
:10075000417C0446A1B153211548FDF75AFE2946B4
:100760001348FDF773FD1248FDF7AEFE0122532139
:100770000F48FDF74BFE0E48FDF77AFDC0B238BDBD
:10078000007C04F0B1FC45F08003A27BE17B607B40
:10079000FFF751FFFF23A27BE17B607BFFF74BFF5D
:1007A00001210546207C04F09FFC284638BD00BF8F
:1007B000C43B00200021FFF7C9BF000038B5457CCD
:1007C00004461DB11548FDF785FD13E00121007CAD
:1007D00004F068FC0121607B04F064FC0121607B73
:1007E00004F082FC0121A07B04F05CFC2946E07B44
:1007F00004F058FC2046FFF7DDFFE528014605D050
:100800001022074806F0F3F8002038BD20460822E1
:100810002D21FFF76DFF012038BD00BFC43B002034
:10082000F041002038B50D4631210446FFF78EFF18
:1008300045F0080300F0F0021A4331212046FFF78B
:1008400057FF257338BD000038B50C46417C05467E
:10085000E1B153211E48FDF7DCFD21461C48FDF7A0
:10086000F5FC1B48FDF730FE022253211848FDF726
:10087000CDFD1748FDF7FCFC04461548FDF7F8FCD4
:10088000000200F47F43E0B218431EE0007C04F055
:100890002BFC44F0C003AA7BE97B687BFFF7CBFE0F
:1008A000FF23AA7BE97B687BFFF7C5FEFF23044695
:1008B000AA7BE97B687BFFF7BEFE44EA002084B296
:1008C0000121287C04F010FC204600B238BD00BF96
:1008D000C43B00203221FFF7B7BF3421FFF7B4BF7C
:1008E0003621FFF7B1BF000070B50C46054624263F
:1008F00032460021204607F0B0FBAB6826606360FB
:10090000012600232361A6602846FFF7E3FF06F0D7
:1009100041FF19A3D3E9002306F0A2FF18A3D3E9EE
:10092000002306F09DFF07F05DFA60612846FFF79F
:10093000D4FF06F02FFF10A3D3E9002306F090FFA9
:100940000FA3D3E9002306F08BFF07F04BFAA06159
:100950002846FFF7C5FF06F01DFF07A3D3E90023D4
:1009600006F07EFF06A3D3E9002306F079FF07F027
:1009700039FAE061304670BDFCA9F1D24D62703F9A
:1009800000000040019D23402DE9F0411D4690F8F4
:100990002630069F00290446904614BF6B261D266C
:1009A00023B33146806AFDF734FDA06A03684146EF
:1009B0001B689847A06AFDF787FD2A463146A06A62
:1009C000FDF724FDA06A03689B689847A842F9DBFD
:1009D0006B1E7E1E1F44B742A06A05D00368DB6809
:1009E000984706F8010FF6E7FDF76EFD2846BDE8CB
:1009F000F0811FB502AB0093A82206230021044614
:100A0000FFF7C2FF9DF80A309DF80B209DF80D10EE
:100A10009DF8090043EA02229DF80C3043EA0123C5
:100A20009DF8081041EA002109B207EE901AF8EE8D
:100A3000E77A12B2C4ED007A07EE902AF8EEE77A70
:100A40001BB2C4ED017A07EE903AF8EEE77AC4EDF6
:100A5000027A04B010BD1FB502AB009388220623B2
:100A600000210446FFF790FF9DF80A309DF80B2007
:100A70009DF80D109DF8090043EA02229DF80C3004
:100A800043EA01239DF8081041EA002109B207EE6C
:100A9000901AF8EEE77A12B2C4ED037A07EE902AC4
:100AA000F8EEE77A1BB2C4ED047A07EE903AF8EE5E
:100AB000E77AC4ED057A04B010BD1FB502AB009310
:100AC000A822062301210446FFF75EFF9DF80A30A5
:100AD0009DF80B209DF80D109DF8090043EA0222B5
:100AE0009DF80C3043EA01239DF8081041EA0021EB
:100AF00009B207EE901AF8EEE77A12B2C4ED067A60
:100B000007EE902AF8EEE77A1BB2C4ED077A07EEFB
:100B1000903AF8EEE77AC4ED087A04B010BD1FB53C
:100B200003AB00938522022300210446FFF72CFF2C
:100B30009DF80D209DF80C3043EA0223A38404B0F5
:100B400010BD10B50446FFF754FF2046FFF783FFA2
:100B50002046FFF7B2FF2046BDE81040FFF7DFBF99
:100B60001FB50DF10F0300930123FFF70DFF9DF853
:100B70000F0005B05DF804FB38B50025057329B9F1
:100B80000B4B0C4A0C48232107F082F901600B49FA
:100B900051F82220027151F8233083719DF81030F2
:100BA00051F8233043710223C371856038BD00BF03
:100BB0001DB40200E0B302002BB40200C0C8020062
:100BC0000368C3F81C15D3F80821002AFBD0D3F81A
:100BD00018050022C3F80821C0B2704707B5094BB9
:100BE00009490A484FF080421A6000229A600222A6
:100BF0001A710D2300930E220C23FFF7BDFF03B0E3
:100C00005DF804FB3C4000200030004048400020DC
:100C10002DE9F04190F90430013305460F4604D127
:100C20001448BDE8F041FFF7CBBF072600244FF082
:100C30000108002195F9040004F056FA08FA06F1BB
:100C4000394095F9050004F04FFA95F904000121A7
:100C5000640004F049FA95F90600E4B204F056FA8B
:100C600008B144F0010416F1FF36E2D22046BDE897
:100C7000F08100BF48400020037870B504460E465E
:100C8000154673B141781A48FDF7C3FB3146184841
:100C9000FDF7DCFA29461648FDF7D8FA1448FDF7A7
:100CA00013FC94F90300002104F01EFA7D21204674
:100CB000FFF7AEFF31462046FFF7AAFF94F9030085
:100CC000012104F011FA94F90300002104F00CFA58
:100CD0007E212046FFF79CFF29462046FFF798FF1C
:100CE00094F903000121BDE8704004F0FDB900BF94
:100CF000C43B002070B5057804460E46A5B1417886
:100D00001D48FDF786FB31461B48FDF79FFA1A4840
:100D1000FDF7DAFB012261781748FDF777FB1648EB
:100D2000FDF7A6FAC0B270BD294690F9030004F0A1
:100D3000DBF97D212046FFF76BFF31462046FFF7A8
:100D400067FF94F90300012104F0CEF9294694F9D4
:100D5000030004F0C9F97F212046FFF759FF294617
:100D60002046FFF755FF0121054694F9030004F0E2
:100D7000BBF9284670BD00BFC43B002038B5032135
:100D80000546FFF7B7FF044648B100212846FFF7A4
:100D9000B1FF002100F0FE022846FFF76DFF20465C
:100DA00038BD30B504789BB00546ECB9012303701B
:100DB00003F068FF00F026FC6860A8B9072302AAC8
:100DC00001A9019302F04AFE686068B902A800F028
:100DD0000CFC0128686003D102A800F0FAFB6860EF
:100DE0006C68B4FA84F4640920461BB030BDF8B5D1
:100DF000074608460D4608F050F8441C05F0A0FAD6
:100E00000128204602D107F0E3F801E005F0BCFC20
:100E10000446284608F041F80021421C20466E1C7A
:100E200007F01BF930462F2107F0FCFF064648B1BA
:100E3000421B2946204607F0EAF8204600F006FA51
:100E40000136EFE7284600F001FA786005F078FAFD
:100E50000128204602D107F0C3F801E005F0A3FC09
:100E60007868B0FA80F04009F8BD0000024B00221B
:100E70005A601A70704700BF5C400020F0B587B020
:100E800005461646684601221F460C9C00F06CF889
:100E9000684600F07BF808B9002413E05CB93A46D4
:100EA0003146684600F0E0F8059B6B6004466846F2
:100EB00000F071F806E02146684600F0A8F8002826
:100EC000EDD1E9E7684600F073F8204607B0F0BDC1
:100ED000F0B587B005460C9C1646684602221F46B0
:100EE00000F042F86CB93A463146684600F022F804
:100EF000059B6B60041C684618BF012400F04BF88A
:100F000006E02146684600F082F804460028EAD14F
:100F1000684600F04DF8204607B0F0BD13B502ABAF
:100F2000026803F8011D546819460122A04702B067
:100F300010BD704738B504460069154600F05AF9EF
:100F4000002860610CBF2846002038BD10B504465B
:100F50000846114604F1100200F025F96061B0FA6C
:100F600080F0400910BD000038B54FF47A750023B9
:100F70008560054D43600446056003614361FFF7EA
:100F8000E5FF204638BD00BF90B402000069003084
:100F900018BF0120704710B50446006900F010F931
:100FA00000236061B0FA80F02361400910BD0000A9
:100FB000044B10B50360036904460BB1FFF7EBFF68
:100FC000204610BD90B4020010B50446FFF7F0FFB4
:100FD000204606F03DF9204610BD13B502A90023B6
:100FE000044641F8043D006900F025F9606101986C
:100FF00002B010BD006900F015B938B50546FFF71D
:10100000ECFF04462846FFF7F5FF201A38BD38B537
:101010000C1E054604DAFFF7E0FF0134211800E05A
:101020002146286900F0F3F86861B0FA80F04009C1
:1010300038BD70B504460E460569FFF7DBFF811B1E
:10104000284600F0E4F86061B0FA80F0400970BD15
:1010500038B50368DB6804469847012105462046F9
:10106000FFF7E7FF284638BD13B5044602AB10462C
:10107000002243F8042D0A460146206900F0A9F831
:101080006061019802B010BD07B501220DF10701A2
:10109000FFF7EAFF01280CBF9DF807004FF0FF3073
:1010A00003B05DF804FB000038B5044668B1074B97
:1010B0001D6845B12146286807F0C2FE08B9686876
:1010C00038BDED68F5E7284638BD38BD64400020DE
:1010D00070B5064605462B4613F8014B84B13A2CF1
:1010E00001D01D46F7E7AD1BEDB2681C06F070FF9E
:1010F000044628B12A46314606F089FF002363558D
:10110000204670BD38B503461C4613F8012B7AB152
:101110003A2AF9D10134204607F0BFFE054606F011
:1011200057FF2A46214606F072FF0022425538BD7D
:10113000BDE8384007F096BE0D2070470D2070477F
:101140000D2070470D2070470D2070470D2070470F
:101150000D2070470D2070470D2070470D207047FF
:101160000D2070470D2070470D2070470D207047EF
:101170000D20704708B500F093F8024B002808BF17
:10118000184608BD8838002008B5FFF7A1FF10B148
:10119000FFF78AFF02E000F079F818B9BDE80840CF
:1011A000FFF7E8BF08BD70B504460D461646FFF7C9
:1011B000EBFF3246036829462046BDE870401847D9
:1011C00010B5044600F07CF843682046BDE81040A6
:1011D00018472DE9F04105460E461746984600F09F
:1011E0006FF8846843463A4631462846A446BDE82F
:1011F000F041604770B504460D46164600F060F8B1
:101200003246C36829462046BDE87040184770B58D
:1012100004460D4600F054F8294603692046BDE80F
:101220007040184710B5044600F04AF8436920465C
:10123000BDE81040184770B504460D4600F040F870
:10124000294683692046BDE87040184710B504461A
:10125000FFF79AFF436A2046BDE810401847000098
:10126000F8B5094B1F6806463C461D4634B1F16B84
:10127000E06B07F0E5FD28B1246CF7E737642E60DA
:101280002046F8BD0B20F8BD68400020034B1868CD
:1012900018B1036C002B18BF002070476840002075
:1012A00038B5064B1C68054634B12946E06B07F09B
:1012B000C7FD08B1246CF7E7204638BD6840002020
:1012C00008B1006870470148704700BF88380020A7
:1012D00010B5044605F034F80128204603D1BDE8D6
:1012E000104006F07DBEBDE8104005F05CBA10B5B8
:1012F000044605F025F80128204603D1BDE810403A
:1013000006F066BEBDE8104005F03EBA084808B5D4
:1013100000234FF0FF321946006804F07BFB28B928
:10132000044B054A05488C2106F0B2FD08BD00BFFC
:101330006C400020E5B40200C8B4020005B502000C
:10134000074808B500231A461946006804F070FAE9
:1013500028B9044B044A0548952106F099FD08BDBB
:101360006C400020E5B40200A9B5020005B50200FA
:1013700010B50446FFF7CAFF0CB1636833B9074BD9
:10138000074A084840F2722106F082FD5C68FFF7C8
:10139000D7FF2046BDE8104001F066BB72B50200E1
:1013A000D2B4020005B5020010B50446FFF7AEFF47
:1013B000A468FFF7C5FF204610BD0000F8B504463D
:1013C0000D4616461F46FFF7A1FF0CB1606830B905
:1013D000084B094A09484FF4167106F059FD3B467F
:1013E0003246294601F0E3FF0446FFF7A9FF2046F5
:1013F000F8BD00BF72B50200B7B4020005B5020027
:1014000010B50446FFF782FF204600F0D3FD0446E6
:10141000FFF796FF204610BD38B504460D46FFF78E
:1014200075FF2946204600F0A9FD0446FFF788FF16
:10143000204638BD70B504460D46FFF767FF02F041
:1014400005FB60B12046FFF75DFE2946064600F029
:101450006BFD044626B13046FFF73AFF00E00D244D
:10146000FFF76EFF0CB100232B60204670BD10B556
:101470000446FFF74BFF02F0E9FA28B120460021AD
:1014800002F07AFC044600E00D24FFF759FF2046E5
:1014900010BD38B504460D46FFF738FF02F0D6FA06
:1014A00028B12046294602F011FC044600E00D2434
:1014B000FFF746FF204638BD10B50446FFF726FF6C
:1014C00002F0C4FA20B1204602F0EFFB044600E02F
:1014D0000D24FFF735FF204610BD38B504460D46F4
:1014E000FFF714FF2946606801F006FD0446FFF788
:1014F00027FF204638BD38B504460D46FFF706FFE6
:101500002946204600F062FE0446FFF719FF2046F8
:1015100038BD70B504460D461646FFF7F7FE02F0DB
:1015200095FA30B120463246294603F0A1F8044628
:1015300000E00D24FFF704FF204670BDF8B5044617
:101540000D4616461F46FFF7E1FE3B46324629464A
:10155000204600F04AFE0446FFF7F2FE2046F8BDA2
:1015600010B5044638B1FFF7D1FE204600F060FE0A
:101570000446FFF7E5FE204610BD73B505460C4650
:101580001646FFF7C3FE02F061FA88B12846FFF75E
:10159000B9FD22460146054601A800F0A1FD04461A
:1015A00068B9019B33607DB12846FFF791FE00E0EA
:1015B0000D24FFF7C5FE4CB10023336006E0002D7B
:1015C000F2D1FFF7BDFEF7E7FFF7BAFE204602B003
:1015D00070BD10B50446FFF799FE204600F03AFFB3
:1015E0000446FFF7ADFE204610BD10B50446FFF7D8
:1015F0008DFE204602F066FF0446FFF7A1FE20465E
:1016000010BD000038B500F0F9FB00F0E5FB01204B
:1016100004F08EF92B4B186000284ED02A4D2B4C2D
:101620002868FFF755FEA0680001FFF760FE2860FC
:1016300008B9052038BD264D2868FFF749FE236804
:1016400018205843FFF753FE28600028F1D0214DA1
:101650002868FFF73DFE63680C205843FFF747FEFC
:1016600028600028E5D01C4D2868FFF731FE23696B
:1016700024205843FFF73BFE28600028D9D0174D9F
:101680002868FFF725FE60694001FFF730FE2860FB
:101690000028CED0124D2868FFF71AFEE06800013E
:1016A000FFF725FE28600028C3D002F033F9044676
:1016B00028B90C48FFF7D4FD01E00A2038BD2046C8
:1016C00038BD00BF6C4000205843002098430020E4
:1016D0006043002094430020C84200205C43002067
:1016E00090430020CC3800200268094B9A420DD16B
:1016F0004268084B9A4209D18268074B9A4205D149
:10170000C36806481B1A584258417047002070476A
:10171000E2318AB98C42B07F5382E0AC8EFC85B155
:1017200008B50146FFF7E0FF20B1C87DA0F1FF0337
:101730005842584108BD007D431E584258417047E9
:1017400038B50C46054618220021204606F085FCD7
:10175000074B08480849094A84E80F006B68236171
:1017600001232375AB7B6375AB89E37538BD00BF7F
:101770008EFC85B1E2318AB98C42B07F5382E0ACF5
:1017800042688068101A70472DE9F043164B1E78A6
:10179000164B1B6800221433B24221DA571CA3F106
:1017A000140C1D463C46B44217DAAE4633F8088C9A
:1017B000BEF80C90C14505F114050CD1DCF80850B9
:1017C000DEF808309D4235BF048002800A800C801C
:1017D0000020BDE8F0830134E5E714333A46DBE747
:1017E0000620BDE8F08300BF54430020644300207E
:1017F00008B5044803F0FAF918B100230360436008
:10180000836008BD6843002010B50446406801F0BD
:101810003DF928B9054B064A06482B2106F038FB4E
:1018200021460548BDE8104003F0F8B9DEB50200D6
:10183000B5B5020009B602006843002013B504469E
:10184000FFF7D6FF01A9206001F08AFF0028F7D139
:10185000019802B010BD10B51423144600F0FAFC34
:1018600030B9206801F012F900280CBF09200020CF
:1018700010BDF7B50446008A14300F4615460DF129
:10188000030101AA80B21E4601F08AFFC8B91423E1
:10189000224601999DF8030000F008FD88B9238ACB
:1018A00033B99DF803302B70019B3360002008E0B2
:1018B00001999DF803003A46143100F0F7FC002826
:1018C000EFD003B0F0BD000008B583682BB90B4B17
:1018D0000B4A0C48D82106F0DBFA02685B685268B4
:1018E0000A6042684B60C3688A8113B94FF0FF33C6
:1018F00000E05B688B60038A0B8208BD7CB6020047
:10190000CBB5020009B6020030B5044689B048687C
:101910000D4601F0BBF830B9124B134A13484FF48F
:10192000AB7106F0B5FA284601F0F8F810B1256061
:10193000062015E002AA0DF10701A86800F020FDBD
:1019400003AA02999DF80700FFF785FF40B9BDF88B
:101950001C30BDF8182025606260A060E060238222
:1019600009B030BDDEB502009AB6020009B6020029
:1019700073B51D4603680C4616460DF1030101AA16
:10198000986800F0FDFC01999DF803001431214492
:1019900033462A46019100F05DFC02B070BD10B5DF
:1019A00000218468FF2000F0D7FC231A58425841D8
:1019B00010BD000030B5054689B048680C4601F0FE
:1019C00065F830B91D4B1E4A1E484FF4C67106F02B
:1019D0005FFA2046FFF7E3FF20B100202C60A860EB
:1019E000E86028E002AA0DF10701A06800F0C8FC39
:1019F00003AA02999DF80700FFF72DFFD8B9BDF89B
:101A00001C30BDF818202C60A860E8602B826A604A
:101A1000049801F055F8B0FA80F4A8600598431CCA
:101A20004FEA541401D1204605E001F05FF8E86068
:101A30000028F8D1012009B030BD00BFDEB502009A
:101A4000BDB6020009B6020030B587B0054601F008
:101A500065F838B1284601F0B5F82846FFF7D4FEFE
:101A6000012014E0294601A8FFF7A4FF012804463D
:101A70000CD8039B23B11A69954204BF049A1A61DA
:101A8000284601F09FF82846FFF7BEFE204607B023
:101A900030BD000010B50446A16959B10B684A6811
:101AA0000BB15A6000E0E2614A680348136003F03A
:101AB000B5F8F1E710BD00BF1043002010B5044693
:101AC00038B1FFF7E7FF21460248BDE8104003F0B8
:101AD000A5B810BDA442002010B5084803F086F850
:101AE000044640B12422002106F0B7FA2346002222
:101AF00043F8182FE361204610BD00BFA442002028
:101B000010B5054803F072F8044618B120220021F0
:101B100006F0A3FA204610BD1043002008B5FFF7D9
:101B2000EFFFB8B90C4B5B685B68186860B18369FC
:101B300043B1FFF7AFFFFFF7E3FF58B9074B084A80
:101B40003F2104E04368EFE7064B074AE6210748D8
:101B500006F09EF908BD00BF1039002064B70200EE
:101B60009CB70200A8BE0200B5B70200F1B60200A1
:101B700083690BB90B6007E0DB690B60C3695B68C5
:101B800019680B8BC9690B4413607047094A1368C5
:101B90002BB199688842196802D00B46F8E7704764
:101BA000586809B1486000E050605A6818461160F2
:101BB000FFF784BF10390020F8B5284D2C68074680
:101BC0000E4624B1A3689E4243D02468F9E7FFF78C
:101BD00083FF0446E0B96B685B68186818B9204B4E
:101BE000204A802111E0036842680BB15A6001E08D
:101BF0001A494A6042681360FFF760FFFFF76CFF05
:101C0000044628B9164B174A8821174806F040F9B0
:101C100024220021204606F020FA314604F1080073
:101C200001F078FB064670B904F12001A06801F0CC
:101C300039F9064638B92B68236003B9074B5C6055
:101C40002C60656005E02046FFF738FF00233B600D
:101C500001E03C6000263046F8BD00BF103900208E
:101C60008CB60200D8B60200F1B60200074B10B5E0
:101C70001C6820464CB1FFF70DFFA16804F1080075
:101C800001F048FB08B92468F3E710BD10390020C3
:101C900032B100230B60C3694B601960C1617047AA
:101CA00083690B600BB1596000E0C16140F8181FF7
:101CB000486070472DE9F043036A89B006468946BB
:101CC0001746002B7BD002AA01A9FFF751FF029D06
:101CD0007DB1019B4B4504D98369D3F81480DD693C
:101CE0000BE04D4505D9C3695B681C68D4F80880D2
:101CF00004E0B368356AD3F810800024019B9D424C
:101D000019D834B1314B324A324840F2A91106F0A9
:101D1000BFF8FFF703FF414604460830FFF74AFECD
:101D200000284FD1238BED1A0246E561214630464B
:101D3000FFF7AEFF00E01CB1E569D4F814800AE0BB
:101D4000414603A8FFF736FE00283BD1BDF81C3002
:101D5000DDF81880ED1A4D452BD834BBFFF7DEFEB9
:101D60000DF10C0C044600F1080EBCE80F00AEE8C3
:101D70000F00DCF80030CEF80030B369E56163B1E4
:101D8000F3695A68126892683AB1904505D1002209
:101D900084E80C001C60F46107E03046FFF77AFE2F
:101DA000002221463046FFF773FF57B13C60002008
